:020000040800F2
:10000000F81D0020B1230008B94300089D23000813
:100010009D2300089D2300089D2300080000000088
:10002000000000000000000000000000592400084B
:100030009D2300080000000011240008353000084E
:100040007125000871250008712500087125000838
:100050007125000871250008712500087125000828
:100060007125000871250008712500087125000818
:100070007125000871250008712500087125000808
:1000800071250008712500087125000871250008F8
:1000900071250008712500087125000871250008E8
:1000A00071250008712500087125000871250008D8
:1000B00071250008712500087125000871250008C8
:1000C00071250008712500087125000871250008B8
:1000D00071250008712500087125000871250008A8
:0C00E0007125000871250008712500083A
:1000F00081F0004102E000BF83F0004330B54FEAD9
:1001000041044FEA430594EA050F08BF90EA020F45
:100110001FBF54EA000C55EA020C7FEA645C7FEAD8
:10012000655C00F0E2804FEA5454D4EB5555B8BFFB
:100130006D420CDD2C4480EA020281EA030382EA6C
:10014000000083EA010180EA020281EA0303362DFE
:1001500088BF30BD11F0004F4FEA01314FF4801CD1
:100160004CEA113102D0404261EB410113F0004FE3
:100170004FEA03334CEA133302D0524263EB43039A
:1001800094EA050F00F0A780A4F10104D5F1200E38
:100190000DDB02FA0EFC22FA05F2801841F1000193
:1001A00003FA0EF2801843FA05F359410EE0A5F167
:1001B00020050EF1200E012A03FA0EFC28BF4CF098
:1001C000020C43FA05F3C01851EBE37101F000454E
:1001D00007D54FF0000EDCF1000C7EEB00006EEB5B
:1001E0000101B1F5801F1BD3B1F5001F0CD34908E5
:1001F0005FEA30004FEA3C0C04F101044FEA44523C
:1002000012F5800F80F09A80BCF1004F08BF5FEAC2
:10021000500C50F1000041EB045141EA050130BDA2
:100220005FEA4C0C404141EB0101013C28BFB1F5B4
:10023000801FE9D291F0000F04BF01460020B1FAFF
:1002400081F308BF2033A3F10B03B3F120020CDAD2
:100250000C3208DD02F1140CC2F10C0201FA0CF0B0
:1002600021FA02F10CE002F11402D8BFC2F1200C15
:1002700001FA02F120FA0CFCDCBF41EA0C019040CB
:10028000E41AA2BF01EB0451294330BD6FEA040414
:100290001F3C1CDA0C340EDC04F11404C4F12002FF
:1002A00020FA04F001FA02F340EA030021FA04F311
:1002B00045EA030130BDC4F10C04C4F1200220FA68
:1002C00002F001FA04F340EA0300294630BD21FAA6
:1002D00004F0294630BD94F0000F83F4801306BF6C
:1002E00081F480110134013D4EE77FEA645C18BF60
:1002F0007FEA655C29D094EA050F08BF90EA020FF7
:1003000005D054EA000C04BF1946104630BD91EAEE
:10031000030F1EBF0021002030BD5FEA545C05D1F1
:100320004000494128BF41F0004130BD14F5800430
:100330003CBF01F5801130BD01F0004545F0FE41A4
:1003400041F470014FF0000030BD7FEA645C1ABFD9
:10035000194610467FEA655C1CBF0B46024650EA10
:10036000013406BF52EA033591EA030F41F400213C
:1003700030BD00BF90F0000F04BF0021704730B5C2
:100380004FF4806404F132044FF000054FF0000197
:1003900050E700BF90F0000F04BF0021704730B558
:1003A0004FF4806404F1320410F0004548BF40422D
:1003B0004FF000013EE700BF42004FEAE2014FEA82
:1003C00031014FEA02701FBF12F07F4393F07F4F5D
:1003D00081F06051704732F07F4208BF704793F060
:1003E0007F4F04BF41F40021704730B54FF4607473
:1003F00001F0004521F000411CE700BF50EA010276
:1004000008BF704730B54FF000050AE050EA01021E
:1004100008BF704730B511F0004502D5404261EB8E
:1004200041014FF4806404F132045FEA915C3FF4CF
:10043000D8AE4FF003025FEADC0C18BF03325FEA6C
:10044000DC0C18BF033202EBDC02C2F1200300FA1D
:1004500003FC20FA02F001FA03FE40EA0E0021FA42
:1004600002F11444BDE600BF70B54FF0FF0C4CF430
:10047000E06C1CEA11541DBF1CEA135594EA0C0FE2
:1004800095EA0C0F00F0DEF82C4481EA030621EA1D
:100490004C5123EA4C5350EA013518BF52EA033558
:1004A00041F4801143F4801338D0A0FB02CE4FF00A
:1004B0000005E1FB02E506F00042E0FB03E54FF03A
:1004C0000006E1FB03569CF0000F18BF4EF0010E32
:1004D000A4F1FF04B6F5007F64F5407404D25FEA2E
:1004E0004E0E6D4146EB060642EAC62141EA5551E1
:1004F0004FEAC52040EA5E504FEACE2EB4F1FD0C23
:1005000088BFBCF5E06F1ED8BEF1004F08BF5FEAA0
:10051000500E50F1000041EB045170BD06F0004652
:1005200046EA010140EA020081EA0301B4EB5C04FF
:10053000C2BFD4EB0C0541EA045170BD41F48011F7
:100540004FF0000E013C00F3AB8014F1360FDEBF1C
:10055000002001F0004170BDC4F10004203C35DAF8
:100560000C341BDC04F11404C4F1200500FA05F37B
:1005700020FA04F001FA05F240EA020001F000421C
:1005800021F0004110EBD37021FA04F642EB060192
:100590005EEA430E08BF20EAD37070BDC4F10C04BC
:1005A000C4F1200500FA04F320FA05F001FA04F280
:1005B00040EA020001F0004110EBD37041F100016C
:1005C0005EEA430E08BF20EAD37070BDC4F1200577
:1005D00000FA05F24EEA020E20FA04F301FA05F2DF
:1005E00043EA020321FA04F001F0004121FA04F287
:1005F00020EA020000EBD3705EEA430E08BF20EA57
:10060000D37070BD94F0000F0FD101F00046400090
:1006100041EB010111F4801F08BF013CF7D041EA12
:10062000060195F0000F18BF704703F00046520016
:1006300043EB030313F4801F08BF013DF7D043EAE7
:100640000603704794EA0C0F0CEA135518BF95EA9D
:100650000C0F0CD050EA410618BF52EA4306D1D124
:1006600081EA030101F000414FF0000070BD50EA43
:10067000410606BF1046194652EA430619D094EACD
:100680000C0F02D150EA013613D195EA0C0F05D1B7
:1006900052EA03361CBF104619460AD181EA03010B
:1006A00001F0004141F0FE4141F470014FF00000C3
:1006B00070BD41F0FE4141F4780170BD70B54FF05E
:1006C000FF0C4CF4E06C1CEA11541DBF1CEA1355DE
:1006D00094EA0C0F95EA0C0F00F0A7F8A4EB0504C0
:1006E00081EA030E52EA03354FEA013100F08880B7
:1006F0004FEA03334FF0805545EA131343EA126380
:100700004FEA022245EA111545EA10654FEA002634
:100710000EF000419D4208BF964244F1FD0404F5ED
:10072000407402D25B084FEA3202B61A65EB030549
:100730005B084FEA32024FF480104FF4002CB6EB06
:10074000020E75EB030E22BFB61A754640EA0C0086
:100750005B084FEA3202B6EB020E75EB030E22BFC6
:10076000B61A754640EA5C005B084FEA3202B6EB07
:10077000020E75EB030E22BFB61A754640EA9C00C6
:100780005B084FEA3202B6EB020E75EB030E22BF96
:10079000B61A754640EADC0055EA060E18D04FEA54
:1007A000051545EA16754FEA06164FEAC30343EAF4
:1007B00052734FEAC2025FEA1C1CC0D111F4801FC1
:1007C0000BD141EA00014FF000004FF0004CB6E7BA
:1007D00011F4801F04BF01430020B4F1FD0C88BF59
:1007E000BCF5E06F3FF6AFAEB5EB030C04BFB6EB64
:1007F000020C5FEA500C50F1000041EB045170BD57
:100800000EF0004E4EEA113114EB5C04C2BFD4EB83
:100810000C0541EA045170BD41F480114FF0000E07
:10082000013C90E645EA060E8DE60CEA135594EA83
:100830000C0F08BF95EA0C0F3FF43BAF94EA0C0F86
:100840000AD150EA01347FF434AF95EA0C0F7FF4FB
:1008500025AF104619462CE795EA0C0F06D152EA4F
:1008600003353FF4FDAE1046194622E750EA410633
:1008700018BF52EA43067FF4C5AE50EA41047FF444
:100880000DAF52EA43057FF4EBAE12E74FF0FF3CA9
:1008900006E000BF4FF0010C02E000BF4FF0010C7A
:1008A0004DF804CD4FEA410C7FEA6C5C4FEA430CF3
:1008B00018BF7FEA6C5C1BD001B050EA410C0CBF42
:1008C00052EA430C91EA030F02BF90EA020F0020A4
:1008D000704710F1000F91EA030F58BF994208BF0B
:1008E00090422CBFD8176FEAE37040F001007047C8
:1008F0004FEA410C7FEA6C5C02D150EA013C07D11F
:100900004FEA430C7FEA6C5CD6D152EA033CD3D069
:100910005DF8040B704700BF8446104662468C4663
:100920001946634600E000BF01B5FFF7B7FF002896
:1009300048BF10F1000F01BD4DF808EDFFF7F4FFBF
:100940000CBF012000205DF808FB00BF4DF808ED4A
:10095000FFF7EAFF34BF012000205DF808FB00BF6D
:100960004DF808EDFFF7E0FF94BF012000205DF88F
:1009700008FB00BF4DF808EDFFF7CEFF94BF012044
:1009800000205DF808FB00BF4DF808EDFFF7C4FF3D
:1009900034BF012000205DF808FB00BF4FEA410290
:1009A00012F5001215D211D56FF47873B3EB6252C1
:1009B00012D94FEAC12343F0004343EA505311F0E8
:1009C000004F23FA02F018BF404270474FF000007A
:1009D000704750EA013005D111F0004008BF6FF0B8
:1009E000004070474FF00000704700BF80F00040AB
:1009F00002E000BF81F0004142001FBF5FEA4103F7
:100A000092EA030F7FEA226C7FEA236C6AD04FEAF6
:100A10001262D2EB1363C1BFD2184140484041403B
:100A2000B8BF5B42192B88BF704710F0004F40F4ED
:100A3000000020F07F4018BF404211F0004F41F409
:100A4000000121F07F4118BF494292EA030F3FD0D5
:100A5000A2F1010241FA03FC10EB0C00C3F12003E8
:100A600001FA03F100F0004302D5494260EB400077
:100A7000B0F5000F13D3B0F1807F06D340084FEAE2
:100A8000310102F10102FE2A51D2B1F1004F40EBD7
:100A9000C25008BF20F0010040EA0300704749003F
:100AA00040EB0000013A28BFB0F5000FEDD2B0FADC
:100AB00080FCACF1080CB2EB0C0200FA0CF0AABFFF
:100AC00000EBC25052421843BCBFD040184370479D
:100AD00092F0000F81F4000106BF80F400000132A3
:100AE000013BB5E74FEA41037FEA226C18BF7FEA7A
:100AF000236C21D092EA030F04D092F0000F08BFBC
:100B00000846704790EA010F1CBF0020704712F0A2
:100B10007F4F04D1400028BF40F00040704712F1E1
:100B200000723CBF00F50000704700F0004343F046
:100B3000FE4040F4000070477FEA226216BF08467C
:100B40007FEA23630146420206BF5FEA412390EA3F
:100B5000010F40F4800070474FF0000304E000BF35
:100B600010F0004348BF40425FEA000C08BF7047E6
:100B700043F0964301464FF000001CE050EA0102AA
:100B800008BF70474FF000030AE000BF50EA0102BF
:100B900008BF704711F0004302D5404261EB4101AC
:100BA0005FEA010C02BF84460146002043F0B643D1
:100BB00008BFA3F18053A3F50003BCFA8CF2083AF6
:100BC000A3EBC25310DB01FA02FC634400FA02FCFF
:100BD000C2F12002BCF1004F20FA02F243EB020006
:100BE00008BF20F00100704702F1200201FA02FC68
:100BF000C2F1200250EA4C0021FA02F243EB02005B
:100C000008BF20EADC7070474FF0FF0C1CEAD0529E
:100C10001EBF1CEAD15392EA0C0F93EA0C0F6FD05F
:100C20001A4480EA010C400218BF5FEA41211ED03D
:100C30004FF0006343EA501043EA5111A0FB013129
:100C40000CF00040B1F5000F3EBF490041EAD371FE
:100C50005B0040EA010062F17F02FD2A1DD8B3F17A
:100C6000004F40EBC25008BF20F00100704790F0E9
:100C7000000F0CF0004C08BF49024CEA502040EA3B
:100C800051207F3AC2BFD2F1FF0340EAC250704701
:100C900040F400004FF00003013A5DDC12F1190F3F
:100CA000DCBF00F000407047C2F10002410021FAB1
:100CB00002F1C2F1200200FA02FC5FEA310040F1C9
:100CC000000053EA4C0308BF20EADC70704792F042
:100CD000000F00F0004C02BF400010F4000F013A7A
:100CE000F9D040EA0C0093F0000F01F0004C02BF75
:100CF000490011F4000F013BF9D041EA0C018FE7E4
:100D00000CEAD15392EA0C0F18BF93EA0C0F0AD0E9
:100D100030F0004C18BF31F0004CD8D180EA01000F
:100D200000F00040704790F0000F17BF90F0004FA8
:100D3000084691F0000F91F0004F14D092EA0C0F8A
:100D400001D142020FD193EA0C0F03D14B0218BF1D
:100D5000084608D180EA010000F0004040F0FE4063
:100D600040F40000704740F0FE4040F440007047FF
:100D70004FF0FF0C1CEAD0521EBF1CEAD15392EA7E
:100D80000C0F93EA0C0F69D0A2EB030280EA010C6E
:100D900049024FEA402037D04FF0805343EA111107
:100DA00043EA10130CF000408B4238BF5B0042F165
:100DB0007D024FF4000C8B4224BF5B1A40EA0C000A
:100DC000B3EB510F24BFA3EB510340EA5C00B3EB3C
:100DD000910F24BFA3EB910340EA9C00B3EBD10F2A
:100DE00024BFA3EBD10340EADC001B0118BF5FEA7C
:100DF0001C1CE0D1FD2A3FF650AF8B4240EBC250A5
:100E000008BF20F0010070470CF0004C4CEA502065
:100E10007F32C2BFD2F1FF0340EAC250704740F4B4
:100E200000004FF00003013A37E792F0000F00F0A6
:100E3000004C02BF400010F4000F013AF9D040EA24
:100E40000C0093F0000F01F0004C02BF490011F4B8
:100E5000000F013BF9D041EA0C0195E70CEAD153B0
:100E600092EA0C0F08D142027FF47DAF93EA0C0F97
:100E70007FF470AF084676E793EA0C0F04D14B027B
:100E80003FF44CAF08466EE730F0004C18BF31F02D
:100E9000004CCAD130F000427FF45CAF31F0004327
:100EA0007FF43CAF5FE700BF4FF0FF3C06E000BFC0
:100EB0004FF0010C02E000BF4FF0010C4DF804CDE3
:100EC0004FEA40024FEA41037FEA226C18BF7FEAF3
:100ED000236C11D001B052EA530C18BF90EA010FF5
:100EE00058BFB2EB030088BFC81738BF6FEAE17084
:100EF00018BF40F0010070477FEA226C02D15FEA20
:100F0000402C05D17FEA236CE4D15FEA412CE1D08B
:100F10005DF8040B704700BF844608466146FFE752
:100F20000FB5FFF7C9FF002848BF10F1000F0FBD34
:100F30004DF808EDFFF7F4FF0CBF012000205DF82D
:100F400008FB00BF4DF808EDFFF7EAFF34BF0120B2
:100F500000205DF808FB00BF4DF808EDFFF7E0FF4B
:100F600094BF012000205DF808FB00BF4DF808ED9C
:100F7000FFF7D2FF94BF012000205DF808FB00BFFF
:100F80004DF808EDFFF7C8FF34BF012000205DF8E1
:100F900008FB00BF4FEA4002B2F1FE4F0FD34FF003
:100FA0009E03B3EB12620DD94FEA002343F00043D6
:100FB00010F0004F23FA02F018BF404270474FF084
:100FC0000000704712F1610F01D1420205D110F00B
:100FD000004008BF6FF0004070474FF000007047BE
:100FE00053B94AB9002908BF00281CBF4FF0FF3190
:100FF0004FF0FF3000F00CB8ADF1080C6DE904CEF5
:1010000000F008F8DDF804E0DDE9022304B07047E1
:10101000704700BF2DE9F04786468C4608461546C6
:1010200074461946089E002B40F0C2808542B2FAF1
:1010300082F245D94AB1C2F1200300FA02FC2EFA2D
:1010400003F3954043EA0C0C94404FEA154EBCFB69
:10105000FEF8A8B20EFB18CC08FB00F9230C43EAFB
:101060000C43994528D9EB1808F1FF3704D299456C
:1010700002D9A8F102072B44A3EB0903B3FBFEFC42
:101080000EFB1C330CFB00F0A4B244EA0344A04264
:1010900014D92C190CF1FF3304D2A04202D9ACF1BF
:1010A00002032C44241A43EA07401EB10023D44013
:1010B00034607360BDE8F0874746DDE76346F1E7DB
:1010C00092BB0121431B4FEA154EB3FBFEFCAFB2AE
:1010D0000EFB1C330CFB07F8200C40EA0343984539
:1010E00062D9EB180CF1FF3004D2984502D9ACF16B
:1010F00002002B44A3EB0803B3FBFEFC0EFB1C33E6
:101100000CFB07F7A4B244EA0344A7424ED92C19BA
:101110000CF1FF3304D2A74202D9ACF102032C44F4
:10112000E41B43EA0040C0E7C2F12003954020FAE7
:1011300003F12EFA03F34FEA154EB1FBFEFC90408B
:101140000343AFB20EFB1C100CFB07F8190C41EA6D
:101150000041884504FA02F422D969180CF1FF30E5
:1011600004D2884502D9ACF102002944A1EB080160
:10117000B1FBFEFC0EFB1C110CFB07F79BB243EA14
:1011800001439F420ED9EB180CF1FF3104D29F426C
:1011900002D9ACF102012B44DB1B41EA004192E78A
:1011A0006046E3E76146F7E76046A3E76346B7E7D3
:1011B000834206D916B9002108467BE7C6E900E05C
:1011C000F9E7B3FA83F78FB9834201D3724508D8A0
:1011D000BEEB020460EB030301209C461EB9002114
:1011E00068E73846FAE7C6E9004CF8E7C7F1200C93
:1011F000BB4022FA0CF41C434FEA144920FA0CF3CA
:10120000B3FBF9F8B8402EFA0CF101430EFA07F5DA
:1012100009FB18301FFA84FE08FB0EFA0B0C43EA98
:1012200000439A4502FA07F240D9E31808F1FF306B
:1012300004D29A4502D9A8F102002344A3EB0A0381
:10124000B3FBF9F809FB183308FB0EFE89B241EA3B
:1012500003418E452CD9611808F1FF3304D28E4525
:1012600002D9A8F10203214443EA0040A0FB0298FE
:10127000A1EB0E014145CE46434602D306D14D4572
:1012800004D2B9EB020E68EB04030138002EA6D09D
:10129000B5EB0E0261EB030101FA0CFC22FA07F335
:1012A0004CEA0303F940C6E9003198E74046C5E738
:1012B0004346D9E7000000002DE97043C9B24D292B
:1012C0001646046946D1A06BFFF764F824A3D3E95E
:1012D0000023FFF7F3F98046606B8946FFF75AF861
:1012E00002460B4640464946FEF708FF8046D4E9D1
:1012F0000B03C01A8946FFF74DF802460B464046DD
:101300004946FFF7B1F80022194B04460D46FFF796
:101310001DFBE0B914A3D3E9002320462946FFF7BB
:1013200033FBA0B929462046FFF738FB3060FFF7B2
:1013300031F802460B4620462946FEF7DDFE08A39B
:10134000D3E90023FFF790F8FFF728FB7060002037
:10135000BDE870836FF08500FAE700BFAFF300804F
:101360000000000080842E410000C0FFFFFFDF412D
:101370000000E0C12DE9F04F4FF0010C00251A4F9D
:101380001A4E013911F8013F0BB9BDE8F08F203B2F
:10139000DAB23A2A88BF00234FF0000E03EB830332
:1013A0003B44002413F8019B0EEB050A49FA04F2B2
:1013B000D2070ED522184FEAE2080AEBC81816F831
:1013C00008B002F007020CFA02F242EA0B0206F839
:1013D00008200134072CE9D10EF1010EBEF1050FF2
:1013E000DFD10635CEE700BFA75C0008F40400207B
:1013F0008FB501230022274DCDE90032286883688C
:101400001C6814B16B464D21A0470026224FDFF81F
:101410008C80286883684C21DB689847002834D189
:10142000286883684D211B6902AA9847DFF87090ED
:10143000029B1C4CC9F8003020683146FFF778FD4C
:1014400020B1D9F80000FFF78BFB2060D9F800002D
:10145000FFF786FB3946FFF7D7FBD4F800A081469B
:1014600041465046FFF7D0FB01464846FFF7C4FA15
:101470000D4B206019682068FFF7BCFA0B49FFF795
:1014800077FCFFF787FD0A4B186000210A2004F063
:1014900058F8BEE70C0000209A99193E9A99593FD6
:1014A000E8030020E403002010000020000048436F
:1014B000E00300202DE9F84F4A4F386803F098FF09
:1014C000002800F08C80484C206803F091FF002831
:1014D00000F085804FF4D0120921386802F0CAFE6E
:1014E0004FF4D0120A21386802F0C4FE4FF4D01233
:1014F0000521206802F0BEFE00220521206802F0CE
:10150000A9FE4FF000080026DFF8E090DFF8E0A029
:10151000DFF8E0B0384B1D6845B9384B1A68012A2E
:1015200053D01B6801334FD000241EE01B68012BF1
:10153000FAD1334B1D6885EAE574A4EBE574142CED
:10154000F2DD4FF496735C434EF66023002DD4BF5A
:10155000002501259C42A8BF1C46A84505D0494648
:101560003046FFF70DFD98BBA84642460921386872
:1015700002F070FE51463046FFF746FB0546204616
:10158000FFF7EEFA5946FFF73FFB2946FFF734FA1B
:101590001C490646FFF7F4FCE0B13046FFF7FAFCC1
:1015A000194C012294FBF0F40A21386802F052FE33
:1015B0000F2003F0F7FE00220A21386802F04AFEED
:1015C000204603F0EFFEA5E701254FF4FA64C4E7D7
:1015D0000024CFE700210A2003F0B3FF9AE7BDE81B
:1015E000F88F00BF04000020000000200000FA4334
:1015F00052B87E3F0AD7A33BDC030020D80300206B
:10160000E00300200000C84240420F002DE9F043F3
:1016100041488FB002F048FE404802F045FE404885
:1016200002F042FE4FF480623E4B4FF00008CDE9DD
:10163000032380233C4FDFF8E89005934FF480624A
:101640000021384602F088FF484602F0EEFD374D93
:101650000646374C002842D00123C5F8008023609D
:101660002D4802F0E2FD28B1324B1A68324B1A6065
:1016700001232B60314E20213368314A06A800F047
:1016800089FF052006A9FFF775FE2B68012B37D1CE
:1016900014202C49FFF76EFE3368002BB8BF5B4265
:1016A000834226DC28492320FFF764FE274B284A83
:1016B0001B68202106A800F06DFF06A93220FFF765
:1016C00059FE0022234B11461868836800979C68D6
:1016D00003ABA0470021FA2003F033FFAEE70F4829
:1016E00002F0A3FD18B14FF0FF332E60B7E7206082
:1016F000B6E73368002B01DD1749D4E71749D2E775
:1017000014201749FFF736FE2368012BF6D0236813
:101710000133C7D1F0E700BFF4590008EC590008C5
:10172000E459000880004000F4040020DC0300209D
:10173000D8030020E403002010000020E003002074
:101740004C5C0008565C0008615C0008E80300205F
:10175000905C0008080000206D5C0008795C0008BF
:10176000835C0008014B1B68184700BF1400002071
:1017700007B50B46024600210348009100F006F829
:1017800003B05DF804FB00BF651700082DE9F04FBA
:10179000824617461C46002595B00391387808B953
:1017A00028465FE3252809D00399D0470028C0F2D6
:1017B00059837B1C01350493049FEFE71822002115
:1017C0000EA802F0C9FE7B78252B7DD00023984619
:1017D0009E469C461E46781C014610F8012B2B2A7B
:1017E00000F0A18000F29880202A00F09F80232A38
:1017F00000F09F802BB19DF8403043F040038DF8FE
:101800004030B8F1000F05D09DF8403043F0200380
:101810008DF84030BEF1000F05D09DF8403043F008
:1018200010038DF84030BCF1000F05D09DF840301A
:1018300043F008038DF840302EB19DF8403043F05E
:1018400004038DF840309DF8403003F044004428F4
:1018500003D16FF386138DF840309DF840302A2A6B
:1018600043F080038DF840307FD19DF841204B1C20
:1018700042F001028DF841201A782E2A0CBF012176
:1018800000219DF8412061F341028DF8412078D17B
:101890005A782A2A6ED000224FF00A0C01331946DA
:1018A00011F8010BA0F13006092E40F295809DF849
:1018B00040101292C1F3400040EAD2700A4660F331
:1018C00041028DF840205CE08DF84330BB1C04934E
:1018D0009DF84130DA0740F12E8154F8048BB8F1BD
:1018E000000F07DA9DF84020C8F1000842F004021A
:1018F0008DF840205E0740F1278154F804BBBBF10E
:10190000000F80F226819DF841306FF341038DF87E
:1019100041304FF0FF3B1CE12D2A0DD0302A7FF4DF
:1019200069AF012358E74FF0010C55E74FF0010E66
:1019300052E74FF001084FE701264DE703460EFB43
:101940000262303A184610F8016BA6F1300CBCF177
:10195000090FF3D999428FD09DF840101192D20F00
:1019600062F341018DF8401086E70B4600224FF0EC
:101970000A0EE7E79DF84120023342F004028DF899
:1019800041201A786C2A47D02BD8682A31D06A2A8D
:101990004BD04C2A51D01A4612F8013B782B0492B6
:1019A0008DF843309DF8412000F2BE806D2B51D858
:1019B000692B00F2B980572B67D8412B03D0453BE8
:1019C000022B00F2B18004229DF8423062F3020340
:1019D0008DF84230012373E00CFB02020B46303AD3
:1019E0005DE7742A25D07A2AD5D106219DF84120B9
:1019F0000CE05A78682A9DF8412006D1012161F354
:101A0000C6028DF841200233C5E7022161F3C60208
:101A10008DF841200133BEE75A786C2A9DF84120A9
:101A200001D10421EBE70321F0E705219DF84120D6
:101A3000ECE707219DF84120E8E7BDF8402022F4BB
:101A4000F04222F0020242F4804242F00202ADF87B
:101A50004020DFE76E3BD9B201238B4040F2824148
:101A60000B4237D113F0240F51D1D8075CD5032195
:101A70009DF8423061F302038DF8423002F07803A2
:101A8000A3F140014B424B411AE00120A3F1580160
:101A9000C9B200FA01F111F4624F94D140F6010687
:101AA00031421DD111F4043F3ED09DF8423060F325
:101AB000020302F07802402A8DF8423034D000232D
:101AC0009DF84020C2F340010B4363F341028DF8BF
:101AD0004020FDE602219DF8423061F30203E8E771
:101AE00002209DF8421002F0780260F30201402AC1
:101AF0008DF8421002BF9DF8401041F001018DF8B1
:101B00004010632BDBD1131E18BF0123D8E703213C
:101B10009DF8423012F0780F61F302038DF84230E5
:101B200014BF01230023CBE79DF8403043F00103AD
:101B30008DF84030C3E79DF94020002AACBF4FF03C
:101B4000FF38DDF84480D5E698077FF5E2AEDDF892
:101B500048B00023CDE911339DF842309DF8411083
:101B600003F00703012BC1F3C30132D1CB1E042BB9
:101B700004D8DFE803F02045452020002368012930
:101B80004FEAE372CDE90E321BD19DF93830DA17F6
:101B9000CDE90E3204349DF8403013F003064FD0E7
:101BA0003A465046049B039902F0E6FB0028C0F237
:101BB0005981054400E654F8043BDA17CDE90E32AA
:101BC000E9E70229E6D11AB243F3C033CDE90E2387
:101BD000E0E7022B24D1CB1E042B04D8DFE803F06E
:101BE00018101018180001294FF0000254F8043B97
:101BF00014D00229CDE90E32CDD19BB20E93CAE7A3
:101C0000073424F00704F4E80223CDE90E23C2E7E9
:101C100054F8043B0E9300230F93BCE7DBB2CDE7EF
:101C2000042B08D1073424F00704D4E90023083436
:101C3000CDE90E23AFE7032BADD154F8043BDDE72C
:101C40009DF8430078283FF6B7AD62281DD82528B7
:101C50004ED058287FF4B0ADDDE90E010DF136030A
:101C6000009310AA08AB02F03FFBBBF1000F074640
:101C700080F2C180002F3FF49FAD0DF13609A9EB32
:101C80000700002E49D0013047E0633815283FF6A1
:101C900093AD01A252F820F0BB1D0008CD1D000835
:101CA000B9170008B9170008B9170008B9170008D4
:101CB000CD1D0008B9170008B9170008B9170008AA
:101CC000B9170008171E0008F11D00087B1D000849
:101CD000B9170008B9170008FF1C0008B917000859
:101CE000F11D0008B9170008B9170008F11D000818
:101CF0000399D0470028C0F2B58001355CE5BBF1FF
:101D0000000F0E9F35DB5946384602F03BFC07EBCF
:101D10000009002F3FF450AD00269DF8423013F02B
:101D20001002059200F0918002305B06DDF844B0AD
:101D300048BF129B584448BFC018B8F1000F40F389
:101D40009E809DF84020A8EB0008C2F38003500756
:101D5000069300F19480510640F187803EB13046F1
:101D60000399D04700287DDB069B01351E463022B3
:101D70007CE0384602F0DEFBC9E70E9800285ED012
:101D80000DF1360908AB0021CDF8009010AA02F041
:101D9000ABFABDF84230BBF1000F03F0EF0343F4A0
:101DA000F04343F010030746ADF8423022DA002832
:101DB0003FF402ADA9EB0000AEE70E9B0026012028
:101DC0008DF8203008AF0DF12109A6E719075ABF99
:101DD000C3F300135E012B26DDE90E23002BBFF6B3
:101DE0003BAF524263EB43032D26CDE90E2333E78D
:101DF000002631E700269DF840200DF13603DB1B5D
:101E00006FF386129B458DF840207FF633AFABEB26
:101E1000030311932EE70E9B07293FF6CDACDFE8B5
:101E200001F00C04060C08080C0C1D70C4E41D80A5
:101E3000C2E4EA17C3E90052BEE41D60BCE42F4FC0
:101E4000064607F10509052067E71A0748BF013074
:101E50006BE71046079306920399D047DDE9062306
:101E6000002804DA15B0BDE8F08F20224346194659
:101E7000002903F1FF33ECDC454498466D1A2EB17E
:101E800030460399D0470028ECDB01359DF84230FD
:101E9000DA0601D41B0705D530200399D047002866
:101EA000E0DB0135059B33B103999DF84300D04732
:101EB0000028D7DB0135AB4405E030200399D0473B
:101EC0000028CFDB0135ABEB0503002BF5DC4B46DF
:101ED0003A465046039902F04FFA0028C2DB054407
:101EE000A844A8EB0503002B7FF766AC20200399DC
:101EF000D0470028B6DB0135F3E700BFCE5D000810
:101F0000074B00205A6822F001025A605A6822F0FA
:101F100002025A605A6822F004025A60704700BFF9
:101F2000002004E0044A136843F010031360034BDD
:101F3000034A1A60704700BF00200240D80000200A
:101F400000127A0008B50348034A0021121A02F071
:101F50002BFA08BD78010020F8080020074808B5D2
:101F6000074A0849121A02F021FABDE8084006485B
:101F7000064A0749121A02F019BA00BF00000020F1
:101F800078010020BC620008000000200000002052
:101F9000BC62000838B505460C4699B1D1E9012369
:101FA0000F48096802F089F9D4E90423E1680D4873
:101FB00002F083F9E1690C4802F07FF9A1690B484E
:101FC00002F07BF9012D05D1EFF3058108481039A6
:101FD00002F073F921462846BDE8384001F0D4B933
:101FE000D45D0008045E0008345E0008445E00080A
:101FF000735E000830BFFFF7FDBF00BF054B5A6995
:102000009B689A421FBF044A536843F08053536051
:10201000704700BFC404002000ED00E010B51D4C67
:102020001D4802F04AF9A36A990130D51B4802F015
:1020300044F91E20A36ADA0103D5194802F03DF9DC
:102040001F20144CA36A1B0303D5164802F035F970
:102050002120A36A590303D5134802F02EF9222048
:102060000C4CA36A9A0303D5104802F026F92320EA
:10207000A36ADB0303D50E4802F01FF92420054AAA
:10208000936A6FEA03436FEA1343936210BD1D2006
:10209000D0E700BF00ED00E0875E0008A05E00080A
:1020A000B45E0008CF5E0008EE5E0008145F000812
:1020B0002F5F000870B5204C064620480D4602F000
:1020C000FCF8A36AD90435D51D4802F0F6F81720AC
:1020D000A36A1A0503D51B4802F0EFF81820164C26
:1020E000A36A9B050FD5184802F0E7F8A16BA36A15
:1020F000180407D5154802F0E0F81EB1A36A23F4CE
:102100000043A36219200C4CA36A5A0503D510485A
:1021100002F0D3F81A20A36ADB0503D50D4802F0BC
:10212000CCF81B20044A936A43F47F439362002354
:102130002B7070BD1620CBE700ED00E05B5F000860
:10214000725F0008845F0008985F0008B25F0008B3
:10215000C85F0008E45F000870B51F4C06461F48C2
:102160000D4602F0AAF8A36AD90632D51C4802F03F
:10217000A4F81120A36A1A0703D51A4802F09DF8A3
:102180001220154CA36A9B070FD5174802F095F84B
:10219000616BA36A180607D5144802F08EF81EB1C9
:1021A000A36A23F08003A36213200B4CA36ADA070F
:1021B00003D50F4802F081F81420A36A064ADB0613
:1021C00058BFA36A936A43F0FF03936200232B7006
:1021D00070BD1020CEE700BF00ED00E0FD5F0008FD
:1021E00014600008845F000848600008616000080F
:1021F000786000082DE9F041574B05465F680026DE
:102200008AB0C7F3080486F31188BFF36F8F02F01A
:102210007F43B3F17F4F06D102F00C03082B12D19C
:102220004E4802F04AF8002635464FF00008E31EFB
:102230008DF80780092B7ED8DFE803F00A73776FEB
:102240007D7D7D7D7D7B10074CBF0D460126ECE733
:102250004348414C02F031F88DF80780E36A9A0751
:1022600004D5404802F029F800242FE0E36A002B4F
:1022700001DA3D48F6E7E36A5B00F5D53B4802F03A
:102280001CF86369AA6943F480736361BFF34F8FDD
:10229000BFF36F8F636932F8022C23F4807363619C
:1022A000BFF34F8FBFF36F8F4DF602739A4208D082
:1022B000A36ADBB21BB301200DF10701FFF74CFF4E
:1022C0002DE029682A4801F0F8FF2C689DF80730B6
:1022D00093B92022294602A802F033F9099BB6B32C
:1022E000C3F3080222B96FEA53236FEA4323099329
:1022F000204602A9FFF74EFE0AB0BDE8F081A36AAE
:1023000013F47F4F05D001200DF10701FFF7D2FE36
:1023100005E0A36AB3F5803FA6D3FFF77FFE04462E
:10232000D4E700200DF10701C8E700200DF10701F7
:10233000ECE7104896E7104B17F4F87F0F49104868
:1023400018BF1946A4F1100201F0B7FF8CE723F47F
:10235000FF7323F00103CAE700ED00E0C660000848
:10236000F26000080A6100082C6100083B61000867
:102370005B61000878610008AD60000898600008A3
:102380009D610008044B5A6942F010025A615A6973
:1023900022F008025A61704700ED00E0EFF3088078
:1023A000EFF3098101B57246FFF724FF01BD00BFBD
:1023B0000A4880F30888102080F3118808484FF4F9
:1023C0000061401880F30988EFF31480022108436C
:1023D00080F31488BFF36F8F01F0F9FFF81D002020
:1023E000F8100020084B9B6883420BD1EFF3058364
:1023F00043B1064B5A6842F080525A605A6A22F43E
:1024000000425A6201F0B6BCC404002000ED00E0B6
:102410000F498A684FF030001044EFF3098C80E8D0
:10242000F01F102080F31288BFF36F8F094F4FF019
:1024300000664A698A603E60906E0023936680F36E
:10244000118802F1300090E8F01F8CF30988704782
:10245000C404002004ED00E01EF0040F0CBFEFF3F5
:102460000880EFF30980816911F8021C0229FFD06E
:1024700001B5724601F09CFF01BD00BF40B20028CB
:1024800007DB01234109034A00F01F00834042F8A3
:102490002130704700E100E040B2002801F1010165
:1024A000ACBF00F16040064B4FEA0111C9B2ABBFAF
:1024B00000F5614000F00F0080F8001319547047D8
:1024C00014ED00E0054B064A23F0404323F07F0360
:1024D0009360BFF34F8FBFF36F8F7047000000080A
:1024E00000ED00E042F8203C009B0B4942F81C3C08
:1024F000019B21F0010142F8183C029B42F8081CA4
:1025000042F8143C4FF0807342F8043C0023203A18
:1025100002658366704700BFD54200080A4B00B5CC
:102520000E46154698602C4686F309880020044B19
:1025300098472046002100220023024C204700003B
:10254000EB430008D5420008C40400201022014BD0
:102550001A61704700ED00E0002310210348C21803
:1025600001332B2B82F80013F9D1704700E100E012
:1025700008B5EFF30583064A103B02EBC30152F89E
:10258000330049688847BDE80840FFF737BD00BF02
:10259000B45700080CB410B586B009B90DF10B00A2
:1025A0000024CDE9040109AB089A009404A9054868
:1025B0000393FFF7EBF8049B1C7006B0BDE81040D6
:1025C00002B070476B4500081F2809D8012303FAA1
:1025D00000F0044B5B6998430CBF0120002070475A
:1025E0000020704700040140012300F01F021F2853
:1025F00003FA02F39DBF034A002053616FF01500F8
:10260000704700BF00040140044B1844002301330D
:10261000994200F8012BFADC704700BF50010020FE
:102620002DE9F041054600264FF001080E4F6B786A
:10263000F4B2A34201D8BDE8F0812B781C442046B7
:10264000FFF7C2FF68B12046FFF7CEFF57F83430DE
:102650003BB107EBC40204F01F04516808FA04F010
:1026600098470136E3E700BFEC030020034660B162
:10267000B0FA80F2C2F11F02D2B205498856054A6B
:1026800011680B431360FFF7F9BEFF22F5E700BFA7
:102690005001002000040140024A136823EA0003AD
:1026A0001360704700040140032921D8DFE801F0DE
:1026B000020C10190F4B9A6822EA00029A60DA683D
:1026C00022EA0002DA6070470A4B9A680243F5E793
:1026D000084BDA680243DA609A6822EA00029A60DC
:1026E0007047044B9A6802439A60DA681043D860D6
:1026F000704700BF0004014030B5B0B1B0FA80F3BC
:10270000C3F11F03DBB20B4850F833408C4204D1B5
:1027100000EBC3056D68954205D044B940F833100D
:1027200000EBC3004260002030BDFF23EBE76FF0F9
:102730000F00F9E7EC03002060B1B0FA80F3C3F1B9
:102740001F03DBB20021044A42F8331002EBC3023C
:1027500051607047FF23F5E7EC0300200F2300F0E2
:10276000030204329200934043EA9000C3B2064A47
:10277000023352F82320030C93FAA3F3B3FA83F342
:1027800002EA1040D84070470000014038B51C4BA9
:102790000D4618680B881446C3F30B03013B1B2B33
:1027A00028D8DFE803F00F1E1E1E0E27180F0F2774
:1027B0002727272727272727270F2727270F2727D9
:1027C0002716104820602B68B3F5805F0BD20020DD
:1027D00038BD4008F6E701F0CBFF70B101F0C8FF4B
:1027E000F0E70020EEE7C3F313330133B0FBF3F05F
:1027F0002060ECE76FF08500EAE76FF00400E7E7A0
:10280000D800002000127A00F8B5384F01F0B2FF6E
:10281000384601F0ACFF00F0EDFC354C354A6368FA
:102820001578C3F30313D35C47FA05F520FA03F6D2
:10283000AE4202D2284600F003FD236823F4802331
:102840002360236843F48033236023689B03FCD513
:10285000636803F00C03082B15D12368980706D48E
:10286000236843F00103236023689907FCD563685C
:1028700023F003036360636813F00C0FFBD16368FC
:1028800023F0F0036360236823F0807323602368E0
:102890009A01FCD400F032F8236843F0807323607F
:1028A00023689B01FCD5636823F0F00363606368D1
:1028B00023F0030343F002036360636803F00C0337
:1028C000082BFAD1AE4202D3284600F0B9FC0A4BDD
:1028D00000201F60636823F4E06343F48063636057
:1028E000636823F460536360F8BD00BF00A24A042C
:1028F0000010024054620008D8000020054A5368C6
:1029000023F47C1343F4E8135360536823F48003E7
:1029100053607047001002402DE9F843D0F804904E
:1029200090460746D9F808000D461E4601F07EFE87
:10293000B8F5001F044616D12846D9F80840FFF71D
:102940000DFF84420CD1294601F070FE0446FFF7CA
:10295000A3FE2046FFF7F0FE00212046FFF7A4FE6D
:102960000020BDE8F883B8F5800F20D0B6F1806F65
:1029700019D0B6F1C06F18D0B6F1007F1AD1022677
:102980003A4620460E49FFF7B7FEB0B92846D9F8B7
:10299000081001F050FE20463146FFF785FE204624
:1029A000FFF764FEDCE70126EAE70326E8E76FF0BD
:1029B0008500D6E76FF01500D3E76FF00F00D0E782
:1029C000B94D000808B5416805480C3183681B689B
:1029D0001BB1984700EAE07008BD6FF05700F9E7B7
:1029E0008056000800222DE9F347134604468A4228
:1029F00011D22BB954F83230C3F389230132F6E7F0
:102A000054F83200C0F389200028F7D098425ED1F4
:102A100001329142F4D8E3B12E4A13F0010F9069CC
:102A200040F00100906192694FEA132002F0010228
:102A30000192019AC3F3440200FA02F0264A09BF48
:102A40005368D369034343F0E06316BF0343536005
:102A5000D361224F04EBC106A64201D1002011E050
:102A6000D4E9002512F003090FD145F04105C2F366
:102A7000870AC2F3831257F82280B8F1000F15D1EC
:102A80006FF0120002B0BDE8F087B9F1020FEED08E
:102A9000B9F1010F07D115F4C07F0CBF45F0020555
:102AA00045F00405E3E745F00105E0E7404602F0A4
:102AB0009FFC0028E4D04B462A4640460AF00F010E
:102AC00002F05EFA002804F10804C5DADAE76FF0D4
:102AD0001500D7E70010024000000140BC5A000872
:102AE0002DE9F0410446006902F055FB01216068C0
:102AF00002F08FFA002802DA10F1860F48D125691A
:102B000064680021204602F084FA00283EDB244855
:102B1000A16883681B68002B3FD09847B0BB012693
:102B2000AC680834D5E9023203EBC203A4F1080211
:102B3000934201D8002029E054F8080C02F058FC18
:102B400040B354F8080C14F8041C34F8023CD0F8D4
:102B500010C0DA07DCF8007054BF43F4B01383F4FC
:102B6000D01323F4801206FA01FEDB07D0F80880A8
:102B70004CBF47EA0E0727EA0E07CCF80070D8F8DA
:102B800000309847002804F10804CBDA00EAE0702E
:102B9000BDE8F0816FF01200F8E76FF05700F5E73D
:102BA000805600082DE9F74F80460E461F46924694
:102BB000056912B9002B00F0B580B38898042BD4B6
:102BC0004FF0FF324FF0FF3305F1100000F0FAFD37
:102BD0006E60D8F810B0D8F80490DBF80030D9F85F
:102BE00000409E42B28840F08380110540F1278169
:102BF000236823F44443BAF1000F14D043F4404354
:102C00002360B08802F0FAF90646DAF800306B6308
:102C100093B1DAF804300FE0AB69002BD0D16B68C8
:102C20009E42CDD1D5E743F400432360B08802F043
:102C3000E5F9064600236B63AB6305F148023346B2
:102C400005F1380105F1340002F0C2F96864002F83
:102C500040F00F81EF6300232B6405F150023346EF
:102C600005F1400105F13C0002F0B2F90023E864EF
:102C70002B63236803F4444AD8F804301A681368B5
:102C800043F040031360D8F81060306848B1037D0A
:102C90003BB10121083002F062FA3368186902F092
:102CA00081FBAB6C1BB92F6D002F00F017812A68D8
:102CB000D9F800609288D70740F1E280B2689707A0
:102CC00040F12781002B00F024812946304602F094
:102CD000FBF9B368D80740F1F080EB6C002B00F0F3
:102CE000EC802B6D002B00F0E88029463046D7E0C1
:102CF000D9F81010C2F34513022917D0032918D0B0
:102D0000012902D1043B1C2B17D96FF085072B68D2
:102D100013B19B889B0405D400236B6005F1100060
:102D200000F01CFD384603B0BDE8F08F043B0C2BCF
:102D3000EAE7082B01D0102BE7D11204E5D49A481A
:102D4000D9F808108368DB68FBB101AA984700280E
:102D50001BDB002301981A463168013320FA03FC7B
:102D60008C4515D82368914923F0400323602368DC
:102D700051F8222023F0380313432360B3889B07C4
:102D80000BD4236823F002030AE06FF00407BEE7C8
:102D9000082BE0D16FF01507B9E7236843F0020371
:102DA0002360B38813F0040F236814BF43F00103BA
:102DB00023F001032360B38813F4006F236823F426
:102DC000444304D0BAF1000F42D043F4404323609F
:102DD000B38813F0100F236814BF43F0800323F06F
:102DE00080032360236823F400532360337D1BB9E1
:102DF00099F8143058072ED5236843F400732360E4
:102E0000636823F004036360B388694A13F0010F19
:102E1000236814BF23F4827343F482732360B08861
:102E200002F0ECF82368013852F8202023F4006304
:102E3000134323600123CBF800608BF85C30B0882B
:102E400002F0DCF80646BAF1000F7FF4DEAEF1E6E0
:102E500043F40043BBE7B38813F0010F236823F466
:102E60000073CCD143F480232360636843F00403F0
:102E7000C9E73B68EB63002B3FF4EDAE7B68EBE604
:102E800099F81430D90718D4376807F44447B7F5D0
:102E9000004F08D1D9F800008368DB07FCD529462C
:102EA00002F0CCF809E0B3689A07FCD52946304611
:102EB00002F00AF9B7F5404FECD1D9F800309A6822
:102EC00012F0700F2AD09A68510605D5DA68009280
:102ED000009A9B680093009B6FF00407D8F80430B9
:102EE000D8F810901C68236803F48273B3F5827FCE
:102EF00045D1A3681E062ED5236858062BD5236816
:102F000003F44443B3F5004FF3D1204602F03BF9FC
:102F1000EFE7736823F080037360DAE6BAF5404F99
:102F20007FF4BFAEAA6C92B92A6D82B19A6812067C
:102F3000FCD41A6822F040021A601A6822F4444253
:102F400042F400421A601A6842F040021A60236894
:102F500003F4444AA5E6D8F81080D8F8003073B1DD
:102F60001A7D62B1998811F4805608D1186902F06F
:102F700019FAD8F800003146083002F0F0F8A368DA
:102F8000990606D5A3680193019B236823F04003AB
:102F90002360D9F800309B88DA043FF5B8AE2046AC
:102FA00002F0F1F8B3E600BF80560008245B000889
:102FB000F45B00084FF0E02310B50F499C691A69D3
:102FC00008689B690D4902F4803234B993B903460D
:102FD0004AB90A681044C01A10BD002B08BF034646
:102FE0000AB9A342F5D90A6802440A604FF0E02208
:102FF0001269EEE70446F3E7C0040020BC04002099
:103000001022094B002083F823204FF4E152074B94
:103010001A60074B41F61F4218604FF0E0235A61D7
:10302000072298611A61704700ED00E0C00400209B
:10303000BC040020684620F007018D4619B5FFF753
:10304000B9FF1149114B0868D3E90042001942F158
:103050000002C3E9000200230B604FF4E1530C4A65
:10306000D2E90041001BB0FBF3F043431B1941F1CF
:103070000001C2E9003101F05BF8FEF7BFFFBDE8D7
:1030800019408546704700BFBC0400206002002044
:10309000580200202DE9F041DFF8E08099B1421C90
:1030A0000BD14FF0E022136923F0010313614FF0BD
:1030B0007F43C8F80030BDE8F081D8F800600128EF
:1030C00007DC00270BE0431CD8F80060F7D140F67E
:1030D000191040F61A139842A8BF1846471EEFF37E
:1030E0001185102383F31288BFF36F8FFFF762FF00
:1030F0004FF0E023224C9969D4E9002380184FF067
:10310000000243F10003C4E900031E4B1A601E4B8A
:103110001A68831A2ED44FF4E15C0CFB073303F5D5
:10312000E0531F33B3FBFCF7131A0CFB0733B3F563
:10313000806F38BF4FF48063144A934228BF134610
:103140004FF0E022C8F80030013B90695361002342
:1031500081429361A1EB000338BF9B19D4E90012AF
:103160005B1842F10002C4E9003285F31188BFF315
:103170006F8FA0E74FF48063E2E700BFC004002038
:1031800060020020BC0400205802002020DFFF0065
:1031900038B5EFF31185102383F31288BFF36F8FD7
:1031A000084B1C68084B1B68E41AFFF703FF85F304
:1031B0001188BFF36F8F4FF4E1532044B0FBF3F05D
:1031C00038BD00BF600200205802002038B5EFF380
:1031D0001185102383F31288BFF36F8F044B1C6893
:1031E000FFF7E8FE85F31188BFF36F8F204438BDE9
:1031F000600200200D4A536803F00C01082912D127
:103200000B48C3F38341DB03405C09D55368094A8B
:10321000C3F340435043084AD35CB0FBF3F070471C
:10322000064B584370470348704700BF00100240E8
:103230006662000800127A006462000800093D001E
:10324000D8B10F4B984216D80E4B984294BF00202D
:1032500001200D4A136823F007030343136013682A
:1032600003F0070398421CBF136803F00703C01A5A
:1032700018BF012070470220EBE70120704700BF14
:10328000006CDC0200366E010020024030B483681E
:1032900005699C697CB1130206D501232D688B401A
:1032A0002B4218BF82F0C062054BA44630BC1340CD
:1032B00002F0B07260476FF0570030BC704700BF3B
:1032C0004000000670B5456804690646E868A060DD
:1032D0002A8AA97A42F4B01201F07FFF30BB04F1D0
:1032E000400002F0AEF8216B04F1580002F054F8EF
:1032F000012204F11C00114602F0AAF8686860601F
:103300002A89297842F4803201F067FF70B90122DE
:103310002B780D4802FA03F3C4E90503606804F151
:1033200010018368DB6913B96FF0040070BD984722
:103330000028F9DB4FF0707229786068FFF7A6FF6C
:103340000028F3D12660F1E70F5200081FB5C368CB
:1033500040F823100321013393FBF1F202EB420208
:103360009B1A0422C3600368019343680293836835
:103370000DEB02000393034B01F0D1F8029805B066
:103380005DF804FB9153000838B5EFF31185102365
:1033900083F31288BFF36F8F064B9C6802F03BF8F3
:1033A00085F31188BFF36F8F2046BDE83840FFF7E3
:1033B00019B800BFC404002038B50A4B53F82040A8
:1033C000013053F82050A54200D838BD606830B1B4
:1033D000037EDB0701D401F0F3FF0834F3E7236831
:1033E0009847FAE7345C0008012270B5294B0320A6
:1033F00086B01A70FFF7E0FF00F010FF0420FFF71F
:10340000DBFF254C254D2646AE4204F1300410D397
:1034100000F0B6FB204C224EAC4226D300F0C4FB99
:10342000FEF7F4F81F4A938923F00103938106B055
:1034300070BD54F80C3C059354F8103C049354F8B8
:10344000143C039354F8183C029354F81C3C019329
:1034500054F8203C009354E90A2354E90C0100F08D
:10346000D7F954F8303C5E65CDE7D4E90A23B3F1CF
:10347000FF3F08BFB2F1FF3F05D052EA03012068C9
:1034800003D100F04DFC3034C6E73146183000F06F
:10349000BFFDF8E7F4080020105900087059000833
:1034A00023550008D8020020702370B5134E012266
:1034B00003FB0066002386B0CDE904230F220193AD
:1034C000CDE9023214230E4D0E4903FB005504468C
:1034D00001EB00214FF4807230460B4B009500F059
:1034E00097F9337C2C7423F004033374074B0134B5
:1034F00003EBC423EE606B6006B070BD6802002071
:10350000C4040020F81800201D540008F810002002
:10351000BFB50020FFF750FF264B83F30888264CE9
:1035200000256369254F43F400736361F02384F839
:103530002230E57725766576A57684F82050636A93
:1035400043F4E0236362FEF71DFFFEF7FFFF4FF039
:10355000FF331B48A362E36200F084F9FEF7E2FC4C
:103560000120FFF729FF0220164CFFF725FF00F08E
:103570004FFB154B15495C61154B4FF48062059369
:1035800001232046CDE90353CDE901553B46009583
:1035900000F03EF90646227C204622F00402227406
:1035A00001F09CFF2846FFF77FFF3A463146204650
:1035B000FEF7B4FFF818002000ED00E0E933000842
:1035C00048030020D8020020C4040020F81900207D
:1035D0007C6200082DE9F341044617461E46EFF3CE
:1035E0001188102383F31288BFF36F8FC368314AA9
:1035F0007BB180689168884219D057EA060318D1D8
:1036000088F31188BFF36F8F6FF00F0002B0BDE831
:10361000F081916891F90E100133E36093682161A4
:10362000A36088F31188BFF36F8F0020EEE7216954
:10363000F2E790F90E3091F90E109942A8BF1946A1
:103640008B422DDD01F0F5FE054622464146CDE9CF
:103650000076194800F0DAF90028E6D0EFF3118679
:10366000102383F31288BFF36F8FA068D0B1236853
:1036700021699C420AD04BB193F90E309942A8BF00
:1036800019466FF07F039942B8BF194601F0D1FE89
:1036900040B13146084800F04DFA6FF00A00B5E736
:1036A0000025D2E7002DF4D186F31188BFF36F8F88
:1036B000F3E700BFC4040020F5080020F8B58368D4
:1036C0000546002B3FD0234A926893423ED1C368FF
:1036D000012B03D9013BC3600020F8BDEFF3118734
:1036E000102383F31288BFF36F8F0169806801F0A4
:1036F000A0FE2C68A54207D10023C5E9023387F359
:103700001188BFF36F8FE7E7002CF5D0D4E90032C2
:10371000002613605A60237CC4E9006623F002038C
:103720002374A66004F1180001F041FFAC6094F925
:103730000E3020462B61E66601F0D0FE3946064881
:1037400000F0F8F9C8E76FF01500C6E74FF0FF305A
:10375000C3E700BFC4040020F508002070B5EFF3F4
:103760001186102383F31288BFF36F8F0468A04281
:103770001AD0CCB1D4E90032002513605A60237C02
:10378000C4E9005523F002032374A56004F1180076
:1037900001F00DFF2046E56601F0A0FE3146BDE8D0
:1037A0007040074800F0C6B9D0E902329A4218BF0B
:1037B0000133836086F31188BFF36F8F70BD00BF44
:1037C000F508002013B5EFF31181102484F312885B
:1037D000BFF36F8F846844B1013C846081F311882A
:1037E000BFF36F8F002002B010BD52EA030406D170
:1037F00081F31188BFF36F8F6FF00F00F3E7CDE90E
:1038000000230246014800F001F9ECE7F50800202A
:103810007FB50C9E00F1580586810426C0E9165537
:1038200000250446067407320B9E22F007028673B9
:103830008E180A9AC0E906558560C5730292099AE6
:103840000192089A00923246FEF74CFE044B6565E1
:103850009B6803B15B6E3046636604B070BD00BF09
:10386000C404002001230374838100234366014BB9
:1038700098607047C40400206FF00A01084A9368FA
:10388000D966084998664B6843F080534B60002323
:1038900083F31188BFF36F8F9368D86E704700BFB2
:1038A000C404002000ED00E070B590F91020037C06
:1038B000002A36DBD90634D11B4C63F07F03224645
:1038C000037452F8183FE169934207D1C0E900211F
:1038D0000860E06111E09942F8D01B68002BF5D038
:1038E00090F90E5093F90E60B542F4D0AE42F2DD7D
:1038F0005968C0E9003108605860A569954200D058
:1039000005B9E568A3681A7CD20604D1DA897F2A52
:1039100001D9AA6932B1AB4202D0284600F0FAFAC6
:10392000656170BD6361FCE7C404002038B590F99F
:1039300010200146002A037C04DA03F07F0303749D
:1039400001F092FD0D4D2A4652F8184FAB68944293
:1039500000D004B9EC688B4207D01A7CD20604D19F
:10396000DA897F2A01D9A2692AB1A34202D020466E
:1039700000F0D0FA23466B6138BD00BFC4040020BC
:10398000B3F1FF3F08BFB2F1FF3F03D00249183047
:1039900000F03EBB704700BF2355000838B5194CF6
:1039A000A168E0690B68814214BF1A460022496889
:1039B0000B605960A368E1692AB9134AC3E9002181
:1039C0000B60E3610CE093F90E0092F90E50A842EF
:1039D00014D0854212DD5168C3E900210B605360A9
:1039E000A569094B9D4200D005B9E568A3689D42D1
:1039F00002D0284600F08EFA656138BD9142DCD0D5
:103A00001268D9E7C4040020DC040020F8B5DDE921
:103A100006670D4B0C46986811460C4A1060EFF390
:103A20001182102282F31288BFF36F8F9D6828469F
:103A300001F02CFD284632463B46FFF7A1FF204609
:103A4000BDE8F840FFF718BFC4040020E4040020DC
:103A5000F8B50446EFF31187102383F31288BFF300
:103A60006F8F037C49B203F01F02002A0CBF0126AE
:103A7000002639D103F07F032D4D037401F0F4FCCF
:103A80002A46037C817363F07F03037452F8183F66
:103A9000934227D1E869C4E900200460EC610FE09B
:103AA0009842F8D01B68002BF5D093F90EC0614501
:103AB000F6D08C45F4DD5968C4E900310C605C60D7
:103AC000AC69944200D004B9EC68AB689C4202D067
:103AD000204600F01FFA6C6187F31188BFF36F8FE7
:103AE0003046F8BDE869DEE79B071ED5856801F022
:103AF000BBFC81732B689D4209D16B68C4E90053FC
:103B00001C606C60E8E76A689342F6D01B68002B83
:103B1000F3D093F90E209142F5D08A42F3DD5A6832
:103B2000C4E9003214605C60D6E78173D4E700BF5B
:103B3000C404002049B9EFF3058030B9054B5A6938
:103B40009B689A4201D0FFF797BE81F31188BFF3BB
:103B50006F8F7047C4040020034648B9EFF3058215
:103B600032B9064A51699268914201D0FFF784BE8A
:103B700083F31188BFF36F8F704700BFC404002028
:103B8000EFF31181102383F31288BFF36F8F054B7E
:103B90009A68D37B013BD37381F31188BFF36F8F96
:103BA000704700BFC404002070B5EFF311861023E6
:103BB00083F31288BFF36F8F144DAB68DA7B013249
:103BC000DA732A4652F8184F944200D004B9EC68D0
:103BD0001A7CD20604D1DA897F2A01D9A2692AB1D6
:103BE000A34202D0204600F095F923466B6186F38C
:103BF0001188BFF36F8FEFF31180102383F31288C6
:103C0000BFF36F8FBDE87040FFF7A6BFC40400206C
:103C1000024B03F11802C3E906227047C4040020D6
:103C200070B5EFF31186102383F31288BFF36F8F03
:103C30001B4CA168E0690B68814214BF1A46002240
:103C400049680B605960A368E1692AB9154AC3E95C
:103C500000210B60E3610CE093F90E0092F90E5025
:103C6000A84218D0854216DD5168C3E900210B60D7
:103C70005360A5690B4B9D4200D005B9E568A36868
:103C80009D4202D0284600F045F965613046BDE806
:103C90007040FFF7F1BD8A42D8D01268D5E700BF67
:103CA000C4040020DC040020F8B550EA01030646F5
:103CB0000C4603D1FFF7B4FF0020F8BDEFF31187E6
:103CC000102383F31288BFF36F8F124D124BA86835
:103CD0001860FFF72BFEA868234632460F491830BC
:103CE00000F096F9AA680446137C384643F00403B2
:103CF0001374FFF7C1FDAB68D3E90A23B3F1004F9A
:103D000008BF002AD8D101F07AFC201A20EAE0701E
:103D1000D3E700BFC4040020E404002023550008BA
:103D200038B50446EFF31185102383F31288BFF3EF
:103D30006F8F037C5B070FD5183001F038FC237CB4
:103D4000204623F004032374FFF7AEFD2946BDE8A7
:103D500038400448FFF7EEBE85F31188BFF36F8F3C
:103D600038BD00BFF5080020014B9868704700BFC0
:103D7000C40400202DE9F84304468789EFF3118538
:103D8000102383F31288BFF36F8F037C190705D5C7
:103D900085F31188BFF36F8FBDE8F883D90943F02D
:103DA00008025DD10274A36813B1204601F064FBE0
:103DB00004F1180001F0FBFBA66D04F15808B045B2
:103DC00011D04FF0000976B1304601F055FB06F1F5
:103DD000180001F0ECFB3046C6F86C90FFF764FD6C
:103DE000A66DB045EFD1DFF8C080D8F808309C420E
:103DF0003ED1EFF30589B9F1000918BF4FF0010971
:103E0000D8F81860294A964200D00EB9D8F80C604C
:103E1000B34202D0304600F07DF82046C8F8146066
:103E200000F0E0FAB9F1000F02D02148FFF71AFDC7
:103E3000D8F808309C4231D1EFF3058373BBA289D7
:103E4000D20718D42846FFF717FDFB07A4D5002397
:103E500083F31188BFF36F8F0423184602DF9BE7BB
:103E600003F07F0343F00803037401F0FDFA9AE7BF
:103E70004FF00009C4E785F31188BFF36F8F83F318
:103E80001188BFF36F8F0423184602DFEFF3118010
:103E9000102383F31288BFF36F8FD4E785F3118863
:103EA000BFF36F8FD1E700BFC4040020DC04002003
:103EB00048030020027C034612F01F0210D10A4979
:103EC00088420DD00949086868B1D9897F2909D885
:103ED00093F90E20064B1B689A42B8BF002070472A
:103EE00000207047104670476802002044010020FF
:103EF000E80400200122044BC01A044BC0105843B0
:103F0000034B1A54704700BFB8030020ABAAAAAAFB
:103F1000F508002070B50C4B0C4D1E7CFFF7CAFF56
:103F2000182303FB06550446284601F040FB0022F7
:103F3000074B9A553CB1621E2846BDE870400549C2
:103F4000D31700F065B870BDC4040020B80300208A
:103F5000F5080020F53E000838B5EFF31185102371
:103F600083F31288BFF36F8F0F4B104A9C68106861
:103F7000A04206D1FFF7CEFF85F31188BFF36F8F04
:103F800038BD00211B7C1160094AD35C002BF3D0A3
:103F90002046FFF78FFF0028EED0237CDB0601D1FF
:103FA000FFF7FCFC2046E5E7C4040020E404002001
:103FB000F5080020024B1868984208BF002070479F
:103FC00048010020034B1B680BB9FFF7E1B8002044
:103FD000704700BFEC04002030B570B10B4B5B683C
:103FE00098420AD0036843B1D3E90421D0E90445DB
:103FF000121941EB0501C3E90421D0E90032136035
:104000005A600023C0E9003330BD00BF48010020E2
:10401000B3F1FF3F08BFB2F1FF3F2DE9F84F04466F
:10402000994615461F467AD08160EFF31188102318
:1040300083F31288BFF36F8FB9F1000FDFF8E4A0AC
:1040400020DBFFF7BFFFDAE90027013549F100095E
:104050002D1849EBE07306464FF00109C4E90453FB
:10406000AD1843EB0707FFF7A5FF0346DFF8B8E0FD
:10407000DEF804A0EBB9C4E900EACAF80040CEF8C3
:10408000044028E06FF00103DAE900125B1A4FF0F8
:10409000FF3161EB02025B1B62EB0902012B72F143
:1040A0000001BCBF012300224FF00009C0E9043227
:1040B000D9E7D3E9041CD4E904208A4270EB0C0B45
:1040C00024DA891A5A686CEB0000C3E90410C4E9C9
:1040D000003214605C60FFF76DFF84420ED1134B19
:1040E0001B685BB9B9F1000F02D1FFF76BFF064601
:1040F000304601F045FA0021FEF7CCFF88F3118825
:10410000BFF36F8F28463946BDE8F88F521A60EB2F
:104110000C009A45C4E90420ADD01B68AAE700252D
:104120002F46EFE7D003002048010020EC040020D8
:104130002DE9F047EFF31185102383F31288BFF3C5
:104140006F8FDFF8A0900026C9F800000027FFF766
:1041500031FFDFF89480D9F80030D8E900ECD917A6
:1041600050B1D0E90442A34271EB020A1BDAE41A0F
:1041700062EB0102C0E90442002413EB0E034CEB96
:1041800001012046C8E90031C9F8004001F0F8F902
:104190002146FEF77FFF85F31188BFF36F8FBDE8DF
:1041A000F047FFF7D9BE14EB0E024CEBE473C0E905
:1041B0000467C8E90023FFF70FFF85F31188BFF3F9
:1041C0006F8F83689847EFF31185102383F312886C
:1041D000BFF36F8FD9F800301B1BC9F80030FFF711
:1041E000E9FEB8E7EC040020D003002010B5EFF39F
:1041F0001184102383F31288BFF36F8FFFF7E2FE61
:104200000346054AD2E90001181841EBE37184F333
:104210001188BFF36F8F10BDD0030020014800F05C
:104220004CB800BF816200087047034637B500688C
:104230001C790569836801A95B68984740B9019BAF
:104240002A685A400123A3401A4214BF01200020CB
:1042500003B030BD012303FA01F103691B68194261
:1042600003D022B183681B6903E0002AFAD0836877
:10427000DB6818471346F0B4D4028768066906D590
:1042800012F4402F03D0DA0748BF83F440230125FE
:1042900034688D4023F48012DB074CBF2C43AC43C1
:1042A00034603B68F0BC1847C288017942F4803220
:1042B0000068FFF7DFBF002070470FB407B504A9FF
:1042C00051F8040B0191FDF753FA03B05DF804EBCC
:1042D00004B07047044608B5084611461A46A04780
:1042E000FFF742FDFEF77EF82DE9F84F9A46D378A6
:1042F00081466F2B0F461546A3F1410B2BD026D8D4
:10430000582B0CBF10260A26DDF8288032460023E1
:1043100048463946FCF764FE092A08F1FF38D4B252
:104320001ED83034B145E4B277F1000788F8004078
:1043300001D3D04511D82B789B0605D5082E15D171
:10434000AB7843F00803AB704046BDE8F88F03F04C
:10435000F703702BD5E70826D6E781460F46D5E749
:10436000BBF1190F94BF37345734DBE7102EEBD174
:10437000AB7843F01003E6E72DE9F04107468846A5
:1043800015461E461446B44205D30EB1601B08E024
:104390002378002BFAD0414614F8010BB8470028C7
:1043A000F1DABDE8F081704700F0D6B800F0C9B886
:1043B00001460068FDF7EEBD08B5FDF71BFEBDE840
:1043C0000840FDF71BBE00210120FDF7E3BD08B545
:1043D000FEF778F8FDF7B6FDFDF7C0FDFEF7BCF877
:1043E000FFF796F86FF08500704761B662B680F30C
:1043F0001188BFF36F8F704772B6002383F3118863
:10440000BFF36F8FBFF34F8F30BF62B6BFF36F8FB5
:104410007047034610B4084611461A789C681AB1D2
:104420005A68234610BC1847234610BC18472DE98C
:10443000F84F07460E4692461D464FEA460808F1D9
:104440000104544501DBBDE8F88F05FB067905FB47
:1044500004FB49460A9807EB0B02FFF7DAFF002836
:1044600008F1020803DBC245EDDD344601E0C24538
:104470000BDD0BEB050205FB04710A983A44FFF7CC
:10448000C8FF34EA200428BF4446A642DBD005FB1F
:10449000047309EB05024A4501D12646CDE799F898
:1044A0000010187809F8010B03F8011BF3E72DE958
:1044B000F74307460C46164698468D1E6D10002D94
:1044C0000BDA013C06FB04F507EB050935443D44D6
:1044D000002C0CDC03B0BDE8F083294633462246AD
:1044E0003846CDF80080FFF7A2FF013DE7E74B46D5
:1044F0003A46AB420CD12246334600213846CDF82D
:104500000080FFF794FF013CA9EB0609AD1BDFE734
:104510001978107803F8010B02F8011BE9E71FB5C1
:104520000024CDE9024301AB8DF80440FFF7BFFF43
:1045300004B010BD034600201A5C02B97047013078
:10454000FAE710B5431E0A44914200D110BD11F89C
:10455000014B03F8014FF7E70346C9B20244934207
:1045600000D1704703F8011BF9E74B68012B07DD09
:104570000B6818700B6801330B604B68013B4B6094
:1045800000207047034600201A5C0AB1884200D11F
:1045900070470130F8E70020704708B50622012176
:1045A0000020FEF731F8002206201146FDF774FFC7
:1045B000012107220846FEF727F8002207201146AE
:1045C000FDF76AFF082201210220FEF71DF80022F4
:1045D00008201146FDF760FF092201210320FEF7A4
:1045E00013F8002209201146FDF756FF0A22012187
:1045F0000420FEF709F800220A201146FDF74CFFBF
:10460000052117220846FDF7FFFF0022172011465B
:10461000FDF742FF282206210A20FDF7F5FF0022C0
:1046200028201146FDF738FF002008BD012001F0C9
:104630001F01884070470F2300F0030204329200EC
:10464000934043EA9000020C92FAA2F2B2FA82F28C
:1046500010B5C3B29B0003F1804303F580339C681F
:10466000914024EA10400143996010BD0B8882B04C
:10467000C3F30B0303F6EC72C2F30B02082A14D83F
:1046800003F1804303F504331A68486802430020AD
:104690001A600B88C3F30B0303F1804303F5043363
:1046A0001B680193019B02B070476FF08500FAE729
:1046B0000B88C3F30B0303F6EC72C2F30B02082A58
:1046C0009FBF03F1804303F504331A6849689BBF19
:1046D00000208A436FF085001A607047012806D0D9
:1046E000053804288CBF6FF085000020704700203B
:1046F000704738B50888C0F30B00FFF7EFFF0028BC
:1047000018DB4B68FF2B14D0012299B2C3F341543C
:1047100001F18041013401F50431A240C3F30445A5
:104720000868013AAA401B0E20EA0202AB4013437C
:104730000B60002038BD088808B5C0F30B0000F6F8
:10474000EC73C3F30B03082B0AD800F1804000F58B
:10475000043002684B68934314BF0120022008BD57
:10476000FFF7BCFF002814BF01200220F7E77047C5
:1047700000207047704743681B681868704710B482
:104780004468E46BA44610BC604707B5426892F8E1
:104790004D3092F84E2019B182F0010283F00103EE
:1047A000603B002A8DF804300CBFC023C8230222CE
:1047B0008DF8053001A90123FFF7E1FF03B05DF893
:1047C00004FB812307B502228DF804308DF8051013
:1047D000012301A9FFF7D3FF03B05DF804FB426892
:1047E0000369B2F846000880B2F844204A800622E5
:1047F0004A601A888A8101228A609B788B7370478D
:1048000038B505690C46AB788B4204D029B9FFF75F
:10481000BCFF08B9AC70002038BD022901D10121CC
:10482000F5E76FF08500F7E737B505690C462B888B
:104830008B420FD0042910D0022910D1A6238DF865
:10484000073001230DF107011A46FFF798FF0028F2
:1048500001DB2C80002003B030BDA723EFE76FF011
:104860008500F8E70346F0B419790068DB88012574
:104870000669DA07346854BF43F4B01383F4D013E5
:104880008D4023F48012DB0787684CBF2C43AC4378
:1048900034603B68F0BC18472DE9F3478E46B3F807
:1048A000068099881D4608FB01FA1B8906468B4243
:1048B0000A9F4FEAEA0A67D1002F62D02C6854455C
:1048C0005FD348EA020C1CF0070C5DD1002C5ED0CF
:1048D0004468C2F3C70994F8481094F852407144F0
:1048E000C9B254B36446604601F00F03090941F0B0
:1048F0001001C8F3C7088DF800308DF80110E3B23D
:10490000984517D94B4463F04F038DF802300322CA
:10491000012369463046FFF732FF00280ADBAA88E8
:10492000002302FB04713046FFF729FF002804F141
:104930000104E4DA02B0BDE8F0872025013B8DF8E0
:10494000031019442223ADF8005021254244D2100F
:10495000013A8DF804108DF805308DF807200123F9
:10496000082269468DF802508DF80690FFF707FF80
:104970000028DFDB2346524639463046FFF7FFFE6C
:10498000D8E76FF03C00D5E76FF01500D2E720467E
:10499000D0E703460A4619790123006803FA01F1BA
:1049A00003691B68194218BF82F0010212B18368C3
:1049B000DB68184783681B69FBE77FB544680E46D0
:1049C000154683F0010104F12000FFF7E2FF012307
:1049D0002146CDE90065CDF808D0039351F8040BCA
:1049E000836802AA1C680023A04704B070BD00F0D1
:1049F000A8BDAE2313B5044640688DF80430036BA0
:104A00003BB100213030FFF7C4FFC8200021FFF781
:104A1000EEFF012320461A4601A9FFF7B0FE02B0BF
:104A200010BDAF2313B5044640688DF80430036B06
:104A30003BB101213030FFF7ACFFC8200021FFF768
:104A4000D6FF012320461A4601A9FFF798FE02B0BF
:104A500010BD10B5446804F12000FFF703FF0028E3
:104A600001DA002010BD206800F0C2FC0028F8D058
:104A7000237E002BF6D0E068BDE8104000F0B8BC03
:104A80000A21F0B5456804466B6D6FF0010083FBA9
:104A9000013153EA010285B000F0D6806FF0004684
:104AA000984276EB01023CBF03463146C01A4FF0F4
:104AB000FF3363EB0101FFF79AFF636820469B6BAE
:104AC0009847002800F0EA802B6B002B40F0BF8055
:104AD000AB6A002B40F0CB80A42365688DF80430CE
:104AE00095F850302769002B15BF04230223A72215
:104AF000A6228DF805203B802B6B002B40F0C48054
:104B0000AB6A8BB105F1280601213046FFF741FF62
:104B10000A200021FFF76BFF00213046FFF739FF25
:104B20000A200021FFF763FF2046FFF762FF0028FD
:104B3000C0F2878048F2D502ADF80820D922636818
:104B40008DF80A2093F84C2020468DF80B20DB22AC
:104B50008DF80C2093F851300622002B0CBF202337
:104B6000342302A98DF80D300123FFF708FE002839
:104B700067DB4DF240326368ADF8082093F84A20B5
:104B800020468DF80A20DA228DF80B2093F84F206A
:104B900002A9002A0CBF122202228DF80C20A822A2
:104BA0008DF80D2093F84B3007228DF80E3001233D
:104BB000FFF7E5FD002844DB00212046FFF7E5FD77
:104BC00000283EDB0023BB7095F851303BBB636887
:104BD000204693F8523002A9002B15BF8B231423D3
:104BE000AD228D228DF8093033238DF808208DF801
:104BF0000A3003220123FFF7C2FD002821DB43F224
:104C0000AD026368ADF8082093F858303BB101233A
:104C10000222204602A9FFF7B2FD002811DB012382
:104C20000222204601A9FFF7AAFD002809DB802106
:104C30002046FFF7C6FD002803DB2046FFF7F1FE04
:104C400098B16FF0040010E04FF0FF3133E705F149
:104C50003000FFF707FE002807DB286B00F0C8FBD9
:104C600000287FF435AF6FF0120005B0F0BD05F1FC
:104C70002800FFF7F7FD0028F7DBA86A00F0B8FB73
:104C800000287FF429AFEEE705F130000121FFF79E
:104C900080FEC8200021FFF7AAFE31E76FF0150063
:104CA000E3E7436800205B689B680B6070474368DC
:104CB0005B68D86842400A404240DA600020704792
:104CC000436800205B6819617047436800205B6897
:104CD00059617047436800205B68DA685140D960C9
:104CE000704710B503695868F8B1884219D19C68BB
:104CF0000868A142586000D19860002008602AB17D
:104D00005A680A609A68596002B99960002010E0F8
:104D1000814206D10868206098688142EDD19C608C
:104D2000EBE7044600680028F2D1002AE8D16FF0D2
:104D3000150010BD91FAA1F3B3FA83F370B50D0E0F
:104D40000F2691FAA1F1B1FA81F144599B0006FABC
:104D500003F3890024EA03048A402243425170BDD0
:104D600091FAA1F3B3FA83F370B50D0E032691FA0D
:104D7000A1F1B1FA81F144599B0006FA03F38900CD
:104D800024EA03048A402243425170BD91FAA1F300
:104D9000B3FA83F370B50D0E042691FAA1F1B1FABE
:104DA00081F144599B0006FA03F3890024EA0304C5
:104DB0008A402243425170BD70B50B690E46596856
:104DC000054609B10C6801B970BD8A682A4002D055
:104DD00030464B6898471CB1236821461C46F2E7D1
:104DE0002346FAE770B501241546072904FA01F2B3
:104DF00088BF01F007014FEA022385BF8C401C43A6
:104E000042EA030444F08064EA07406822D415F0C3
:104E1000060204D12146BDE87040FFF78BBF022A8D
:104E200001D10422F6E705F4C075802D6FEA14263F
:104E30004FEA14220BD192FAA2F20123B2FA82F2C3
:104E4000C168934031400B430822C360E2E7C36866
:104E50003340F9E76B0654BF012209222146FFF7D0
:104E600069FF15F0200218BF0422214605F018053D
:104E7000FFF78CFF082D05D102222146BDE87040C6
:104E8000FFF76EBF0DB90122F7E70322F5E7F8B58A
:104E90000646076912F400300D46134622D09A07E1
:104EA00019D55C0769D5212213F0100F03F44034A3
:104EB00013D042F08402002C39D11803716855D503
:104EC00001234968AB400B6129467068FFF78AFFF0
:104ED000002C3AD111E00122E6E7990648BF42F4DE
:104EE0008272E8E712F4803203F4403410D1F4B94E
:104EF000224629467068FFF775FFFB6823FA05F222
:104F0000D20722D50122AA4023EA0203FB601CE05B
:104F1000D90608D49A0602D444B90224E8E7B4B901
:104F20004FF48274E4E7ACB98424E1E70222D7F8B5
:104F30000CC02CFA05F1C9070ED5D6F804C000281C
:104F4000BBD129466046FFF74DFF0020F8BD4FF466
:104F50008272ECE78422EAE70121A94041EA0C01D0
:104F6000F9600028A9D129467068ECE7580341BFD1
:104F700001234968AB404B61A6E76FF08500E5E788
:104F8000F8B51F46044640680E461546FFF72AFF4F
:104F9000032F08D1012303FA06F66368AA055B68AC
:104FA0004CBF1E615E610020F8BD30B50368136020
:104FB0000579046804EBC504A34202D36FF0010035
:104FC00030BD5C798C4201D00833F0E70020F7E770
:104FD00030B50446086808B9106008E020684568E4
:104FE0009D4205D3B5FBF3F515602368186830BD05
:104FF00008302060086801380860EBE7C0F345100E
:10500000082804D910288CBF0420022070470120F2
:10501000704713B5406801AA0C46FFF7C6FF002889
:1050200005DB019B002219791868FDF7DBFC012CD8
:1050300002D1831C08BF002002B010BD38B50B6838
:1050400005469888FFF7DAFF0C4602280346D4E9A4
:10505000131208D001280DD194F85C00012809D959
:10506000A06D012806D9E86809B102B10880226D57
:10507000EAB938BD287BC0B219B1002AF9D008704E
:10508000226D002AF5D00121521A2265AAB9E26BDD
:1050900004F140010832E263226C04F13C00013A61
:1050A000226404F15002FFF793FFE064E1E702217C
:1050B000B1FBF3F19142DCD8E6E7E26C002AD8D0EC
:1050C00001FB0322E264D4E738B50B6805469888F3
:1050D000FFF794FF02280C460346496C08D00128CC
:1050E00011D194F85C20012A0DD9626D012A0AD9E8
:1050F00039B1A26C02B10A8892B2AA81A26C0ABB31
:1051000038BD0A46F8E7D9B1A26C02B10A78D2B22A
:105110002A73A26C002AF3D00121521AA264BAB9F0
:10512000626B04F1380108326263A26B04F134004F
:10513000013AA26304F14802FFF74AFF6064DFE727
:105140000A46E4E70221B1FBF3F19142D8D8E4E743
:10515000626C002AD4D001FB03226264D0E70346CC
:105160000A4619790123006803FA01F103691B68F3
:10517000194218BF82F0010212B18368DB68184738
:1051800083681B69FBE7036823F04003036003683F
:105190005B06FCD4704710B5036804464BB11A7D1A
:1051A0003AB1186900F0FEF8206800210830FFF7D6
:1051B000D6FFA36933B9636004F11000BDE8104065
:1051C000FEF7CCBA10BD10B544680069FFF7E3FFE5
:1051D0002068FFF7D8FF002010BDF0B4D4021346BA
:1051E0008768066906D512F4402F03D0DA0748BF56
:1051F00083F44023012534688D4023F48012DB07BB
:105200004CBF2C43AC4334603B68F0BC184710B52E
:105210000C4651F8103C4FF400125B6854F80C0C2B
:105220001978FEF733F804F10C00BDE81040FEF7E2
:1052300095BA03691B689B0548BF81F0010121B144
:105240008368DB684FF40071184783681B69F9E7CE
:1052500013B5044601218068FFF7EBFF012000F041
:10526000A1F80021A068FFF7E4FF012000F09AF800
:1052700060680469836801A95B68984720B923685E
:1052800001985840C0F3002002B010BD2DE9F04154
:105290000469D0F8048094F83E30002B41D142F2EA
:1052A0001072002304F11C00FEF78CFA0546A8BB1F
:1052B0001827064620467600FFF7CAFF00B10136E0
:1052C000013FF7D194F83C309F4222DB86F4000680
:1052D000E66204F140074FF0FF324FF0FF333846EB
:1052E000FEF778F9E16A666504F15800FEF72EF8DA
:1052F000E0623846FEF7E2F94FF0707298F800105D
:105300006068FDF7C3FF002818BF05462846BDE8C2
:10531000F0812046FFF79CFF0137D3E76FF00405CB
:10532000EAE76FF00C05F1E770B5132A1C46056932
:1053300018D0142A1BD0082A27D105F140064FF0B7
:10534000FF324FF0FF333046FEF744F9216805F194
:10535000580000F021F83046FEF7B0F923682B63BF
:10536000002070BD1B686B636368AB63F8E71B6864
:10537000022B03D0032B01D0012B06D185F83C3042
:105380004D21BDE87040FFF781BF6FF08500E8E771
:1053900000680B68C01A70470023C0E90011C360A1
:1053A0008160704738B5044648B1FDF70FFF4823C8
:1053B00005465C43FDF70AFF431BA342FAD338BD01
:1053C00010B5436904463BB90020E2684042537877
:1053D00043F00103537010BD98470028F4D0002813
:1053E000B8BF4042FF28A8BFFF20E3681870ECE771
:1053F00040B1C368587810F001001EBF1878B0FAA9
:1054000080F040097047EFF31183102383F3128873
:10541000BFF36F8FFEE708B5FFF7F5FF102408B55F
:10542000EFF3118384F31288BFF36F8FFEF7E4FF6D
:10543000F6E790F90E308B4201D0FEF709BB002051
:10544000704703460020C3E90033C3E902007047F8
:105450003AB18A4205D3C0E90212C0E90000002037
:1054600070476FF015007047D0E9003213605A6042
:105470000023C0E90033704708B5FFF7F5FF037C50
:1054800023F0020303740023836008BD38B504468B
:105490000D46FEF74BFA237C43F002032374E5B17B
:1054A000A5602B689D4209D16B68C4E900531C605C
:1054B0006C6012E06A689A42F6D01B68002BF3D049
:1054C00094F90E2093F90E108A42F3D09142F1DD47
:1054D0005A68C4E9003214605C6038BD10B5EFF35F
:1054E0001184102383F31288BFF36F8FFEF7DCF96A
:1054F00084F31188BFF36F8F10BD08B5037C01469C
:1055000013F0280F0CD183680BB1FFF7B5FF0B7CAC
:10551000084623F004030B74BDE80840FEF7C4B945
:1055200008BD10B5EFF31184102383F31288BFF385
:105530006F8F1838FFF7E1FF84F31188BFF36F8F87
:1055400010BD38B504460D46FEF7AEFBB5F1FF3F82
:1055500008BFB4F1FF3F0346204610D013F1090005
:105560004FEAE37141F100010A220023FBF738FD05
:10557000B0F1004F71F1000128BF6FF0004038BD5D
:1055800008B50246FEF716FD70B1D0E904319B1A4A
:1055900061EBE272B3F1004F72F1000104DA002A0C
:1055A000ACBF1846002008BD6FF00040FBE7024684
:1055B00038B5EFF31185102383F31288BFF36F8F93
:1055C0000368CBB1FEF7F6FC04461046FEF704FD77
:1055D00000224FF000438442C0E9042306D1FEF7C5
:1055E000F1FCFFF7CDFF0021FDF754FD002085F30E
:1055F0001188BFF36F8F38BD6FF01500F7E708B55E
:08560000FEF7F4FD08BD0000F7
:085608000CBAFF7F0100000055
:105610000000000080560008011F00080000000084
:10562000000000000C570008000000002857000888
:1056300000000000F0560008000000009C56000822
:1056400000000000D456000800000000B856000812
:105650009B45000800000000013000080000000029
:1056600000000000445700080000000060570008D8
:10567000000000007C570008000000009857000858
:10568000DD610008000000009C5900086201002054
:10569000000000000928000800000000B1610008B7
:1056A0000000000000000000600100200000000079
:1056B0009745000800000000F4610008585A0008EF
:1056C00070590008660100206C040020C5290008FC
:1056D00000000000026200086C5A000870590008BF
:1056E000680100207C040020C5290008000000009B
:1056F00010620008805A0008705900086A010020F2
:105700008C040020C5290008000000001E6200086B
:10571000945A0008705900086C0100209C04002075
:10572000C5290008000000002C620008A85A0008E3
:10573000705900086E010020AC040020C529000843
:10574000000000003A6200084C5B00089459000811
:105750007001002018000020E12A0008000000006D
:1057600047620008A45B00089459000872010020F9
:1057700078000020E12A000800000000EA6100082B
:10578000FC590008B859000864010020F00400200A
:10579000814A00080000000076620008185C0008DA
:1057A000FC5B000874010020DC000020C53200080A
:0457B00000000000F5
:1057B40000000000C743000800000000C7430008C1
:1057C40000000000C743000800000000C7430008B1
:1057D40000000000C743000800000000C7430008A1
:1057E400DB61000821260008D96100082126000891
:1057F400D761000821260008D56100082126000889
:10580400D36100082126000800000000C7430008F7
:1058140000000000C743000800000000C743000860
:1058240000000000C743000800000000C743000850
:1058340000000000C743000800000000C743000840
:1058440000000000C743000800000000C743000830
:1058540000000000C743000800000000C743000820
:1058640000000000C7430008D16100082126000899
:1058740000000000C743000800000000C743000800
:1058840000000000C743000800000000C7430008F0
:1058940000000000C743000800000000C7430008E0
:1058A40000000000C743000800000000C7430008D0
:1058B40000000000C743000800000000C7430008C0
:1058C40000000000C743000800000000C7430008B0
:1058D40000000000C743000800000000C7430008A0
:1058E40000000000C743000800000000C743000890
:1058F400CF6100082126000800000000C74300080B
:0859040000000000C743000889
:10591000E8010020F80C002000040000F11300084A
:105920000000000000000000000000000500000072
:1059300000000000A15C0008000000000000000062
:1059400078010020F808002000040000B5140008C9
:105950000000000000000000000000000500000042
:1059600000000000985C000800000000000000003B
:105970008F4E0008A34C0008AF4C0008C14C000833
:10598000CB4C0008D54C000819290008E34C00084E
:045990000000000013
:08599400A52B0008C751000813
:10599C006D460008B1460008000000008D27000885
:0C59AC003747000800000000F346000828
:1059B800F3490008234A000899480008000000003D
:1059C800000000000000000000000000C3470008BD
:0C59D800DF4700082948000801480008CB
:1059E4002857000802001100285700080100110080
:1059F400285700080300110060570008001BB70077
:105A04000001000028570008040001000000000005
:105A140001000000000000000C5700080100000015
:105A24000C57000800000100000000000000000006
:105A3400534A0008BB49000877470008400080002B
:105A44000000003F22010100000000000A000000E5
:105A540000000000FFFF00000018014004000000E7
:105A64001800000040000000FFFF00000014014087
:105A7400030000001800000020000000FFFF0000E9
:105A84000010014002000000180000001000000097
:105A9400FFFF0000000C014001000000180000009E
:105AA40008000000FFFF00000008014000000000A3
:105AB4001800000004000000285700080C570008D4
:105AC400F0560008D4560008B8560008000000003C
