:020000040800F2
:10000000E82400200D1C0008255B0008F91B0008EF
:10001000F91B0008F91B0008F91B0008000000008C
:10002000000000000000000000000000C11C0008EB
:10003000F91B0008000000006D1C0008692D000875
:10004000091E0008091E0008091E0008091E0008F4
:10005000091E0008091E0008091E0008091E0008E4
:10006000091E0008091E0008091E0008091E0008D4
:10007000091E0008091E0008091E0008091E0008C4
:10008000091E0008091E0008091E0008091E0008B4
:10009000091E0008091E0008091E0008091E0008A4
:1000A000091E0008091E0008091E0008091E000894
:1000B000091E0008091E0008091E0008091E000884
:1000C000091E0008091E0008091E0008091E000874
:1000D000091E0008091E0008091E0008091E000864
:0C00E000091E0008091E0008091E000887
:1000EC0053B94AB9002908BF00281CBF4FF0FF3193
:1000FC004FF0FF3000F00CB8ADF1080C6DE904CEF8
:10010C0000F010F8DDF804E0DDE9022304B07047DC
:10011C00704700BF034613F8012B002AFBD1181AB5
:10012C00013870472DE9F04786468C46084615463F
:10013C0074461946089E002B40F0C2808542B2FAE4
:10014C0082F245D94AB1C2F1200300FA02FC2EFA20
:10015C0003F3954043EA0C0C94404FEA154EBCFB5C
:10016C00FEF8A8B20EFB18CC08FB00F9230C43EAEE
:10017C000C43994528D9EB1808F1FF3704D299455F
:10018C0002D9A8F102072B44A3EB0903B3FBFEFC35
:10019C000EFB1C330CFB00F0A4B244EA0344A04257
:1001AC0014D92C190CF1FF3304D2A04202D9ACF1B2
:1001BC0002032C44241A43EA07401EB10023D44006
:1001CC0034607360BDE8F0874746DDE76346F1E7CE
:1001DC0092BB0121431B4FEA154EB3FBFEFCAFB2A1
:1001EC000EFB1C330CFB07F8200C40EA034398452C
:1001FC0062D9EB180CF1FF3004D2984502D9ACF15E
:10020C0002002B44A3EB0803B3FBFEFC0EFB1C33D8
:10021C000CFB07F7A4B244EA0344A7424ED92C19AD
:10022C000CF1FF3304D2A74202D9ACF102032C44E7
:10023C00E41B43EA0040C0E7C2F12003954020FADA
:10024C0003F12EFA03F34FEA154EB1FBFEFC90407E
:10025C000343AFB20EFB1C100CFB07F8190C41EA60
:10026C000041884504FA02F422D969180CF1FF30D8
:10027C0004D2884502D9ACF102002944A1EB080153
:10028C00B1FBFEFC0EFB1C110CFB07F79BB243EA07
:10029C0001439F420ED9EB180CF1FF3104D29F425F
:1002AC0002D9ACF102012B44DB1B41EA004192E77D
:1002BC006046E3E76146F7E76046A3E76346B7E7C6
:1002CC00834206D916B9002108467BE7C6E900E04F
:1002DC00F9E7B3FA83F78FB9834201D3724508D893
:1002EC00BEEB020460EB030301209C461EB9002107
:1002FC0068E73846FAE7C6E9004CF8E7C7F1200C86
:10030C00BB4022FA0CF41C434FEA144920FA0CF3BC
:10031C00B3FBF9F8B8402EFA0CF101430EFA07F5CD
:10032C0009FB18301FFA84FE08FB0EFA0B0C43EA8B
:10033C0000439A4502FA07F240D9E31808F1FF305E
:10034C0004D29A4502D9A8F102002344A3EB0A0374
:10035C00B3FBF9F809FB183308FB0EFE89B241EA2E
:10036C0003418E452CD9611808F1FF3304D28E4518
:10037C0002D9A8F10203214443EA0040A0FB0298F1
:10038C00A1EB0E014145CE46434602D306D14D4565
:10039C0004D2B9EB020E68EB04030138002EA6D090
:1003AC00B5EB0E0261EB030101FA0CFC22FA07F328
:1003BC004CEA0303F940C6E9003198E74046C5E72B
:1003CC004346D9E7F8B5002000F03EFC044600BBDC
:1003DC00114D284606F039FFD8B12A69AE6813686A
:1003EC000D2143F400531360284633680B4A984799
:1003FC000B4F4FF4005173692846984721463846F5
:10040C0004F072FE013400214FF47A7007F053F8B7
:10041C00EFE70020F8BD00BF2478000801000600BB
:10042C006E7D0008014B1B68184700BFB000002010
:10043C00014B1860704700BFB000002030B5044677
:10044C0085B00D4610220021684607F0DFF8022324
:10045C008DF80230044B2A4621466846019304F07D
:10046C0055FE05B030BD00BF3104000880B505460F
:10047C000E461746984604F09DFB034601F0D0FC4F
:10048C000446DFF81890424649F8003039463046A9
:10049C00A84754F8090001F0CDFB00BF080000008C
:1004AC00074B00205A6822F001025A605A6822F069
:1004BC0002025A605A6822F004025A60704700BF68
:1004CC00002004E0044A136843F010031360034B4C
:1004DC00034A1A60704700BF002002404001002010
:1004EC0000127A00F0B40D4B0D4E5F6A0D4BB34207
:1004FC0003D36FF08500F0BC70475C68BC420AD334
:10050C001D6945B194F802C08488E4B2A44502D1B7
:10051C002B46F0BC18472433E9E700BFD80C002069
:10052C0054020020300200202DE9F04705460E460B
:10053C001746134CDFF84C80DFF84C90444503D33E
:10054C006FF08500BDE8F0876268D9F824309A42D4
:10055C0013D3A3698BB1A9889078C9B2884205D10D
:10056C003A4631462846BDE8F04718475279012AE9
:10057C0003D13A463146284698472434DEE700BF7B
:10058C003002002054020020D80C00202DE9F0414C
:10059C0005460E4617460A4CDFF82880444502D320
:1005AC006FF0850009E063690BB92434F6E73A462D
:1005BC003146284698470028F7D1BDE8F08100BFA6
:1005CC00300200205402002010B5044601F00AFF4E
:1005DC0010F1780F00D050B9204605F0FEF8044A0F
:1005EC00D2F8C43023EA00030020C2F8C43010BD96
:1005FC00D80C00200022024B1A605A60704700BFD2
:10060C00930D002070B50B4B0B4CA34201D3002073
:10061C0070BD0022196A1E7F0439D5B2AE4201D8D2
:10062C002433F2E7013211F832508542F5D1012022
:10063C00EEE700BF300200205402002073B584881E
:10064C000D46E4B263068DF8074007D02046FFF74D
:10065C00D9FF78B10D4B93F8BA0058B120460B4E28
:10066C0055B101F06BFEF3691BB108200DF10701C8
:10067C009847012002B070BD01F076FEF369002BA3
:10068C00F7D009200DF10701F2E700BFD80C0020CC
:10069C0008B509480378C3F341130A3350F82330E3
:1006AC003BB100F1080200F110019847C043C00FA4
:1006BC0008BD1846FCE700BFD80C002004282DE923
:1006CC00F14F04460F46DFF8949016D001282DD137
:1006DC00DFF88C8098F8B93043B300F0D9FD214D88
:1006EC004D4520D24FF0000AD5F820B02B7F5FFA91
:1006FC008AF6B34204D82435F2E7FFF77BFFE7E72D
:10070C000BEBC606307901F06DFE0246307905F030
:10071C0064F8D8F8C430002A23EA0003C8F8C430BF
:10072C000AF1010AE2DA002388F8B9300D4D4D4583
:10073C0008D30B4B1B6A6BB13946204601B0BDE8A0
:10074C00F04F1847EB681BB13A46214628469847AC
:10075C002435ECE701B0BDE8F08F00BF5402002057
:10076C00D80C00203002002073B586781E4C8DF812
:10077C0000600379427943EA0223ADF80230C37872
:10078C00304603F003038DF8043005F026F8D4F856
:10079C00C430054618420BD0304600F05BFD3046A5
:1007AC00FFF712FF06F011FE10B9962006F0A2FE1C
:1007BC00684601F075FD10F1780F03D010B10020E0
:1007CC0002B070BD9DF8000001F0E8FD10F1780F4B
:1007DC0001D00028F3D10120D4F8C43084F8B9003A
:1007EC002B43C4F8C430EBE7D80C00202DE9F047BC
:1007FC00A84E0446B3690F461546FBB9237803F09F
:10080C001F03012B00F09E80022B00F0068133BBEE
:10081C0094F900002A680028617834DA062912D08D
:10082C0008292BD0D9B901235170137096F8C33015
:10083C005B0043F001031370022328E19847002862
:10084C00DCD100200DE06288100A011F01298446CA
:10085C0005D9072803D8716AD2B20C781CB96FF08D
:10086C001500BDE8F0874E78664503D19A4200F03A
:10087C00098101332144F0E70B7808E196F8BA308E
:10088C001370012303E101390829E8D801A353F8B7
:10089C0021F000BF3B0900086B080008490900085B
:1008AC006B080008C50800086B0800086B080008F6
:1008BC006B080008D30800086088C0B201F072FC15
:1008CC000028BED0CBE76388756A63BBFFF792FE46
:1008DC00638886F8BA30F369002BB2D003206E49D6
:1008EC009847AEE76B78042B10D0052B11D0022B58
:1008FC0004D16F796388BB4208BF01202B781D445B
:10090C002B78002BEED10028A9D0DFE795F80380D7
:10091C00F4E76388BB42F1D1B8F1000FEED1284661
:10092C00FFF722FFEAE7FF270020B846E8E76388D5
:10093C00012B94D1002386F8C33082E76388012B06
:10094C008DD1F8E796F8BA30D5F800C0002B86D0D8
:10095C00756AA3882A465FFA83FE107800283FF454
:10096C007EAF5178022904D192F80480F04500F250
:10097C0095800244F1E78CF800208CF80120396056
:10098C005FE7154496E00B2A7FF469AF00274FF020
:10099C00FF08BA46C14606E06B78042B0FD0052B36
:1009AC0021D02B781D442B78002BF5D1F36913B192
:1009BC00514607209847002F7FF443AF4FE795F837
:1009CC000280A38895F803909845EAD163889945ED
:1009DC00E7D1B8F1070F1DD806EB0803AA4601278B
:1009EC0083F8BB90DDE7A3884345DAD16388DBB29B
:1009FC004B450AD0AF78384600F02CFC3846FFF750
:100A0C00E3FDB0FA80F77F09CBE72846FFF7ACFE91
:100A1C000746C6E7AA460027C3E794F90020637887
:100A2C00002A19DA002B7FF41AAFA3882D68DCB2E8
:100A3C005B060AD02046FFF7E5FD00283FF40FAF18
:100A4C0096F8BA30002B3FF40AAF2946204605F041
:100A5C001AF900236B70EFE6012B08D0032B7FF4FF
:100A6C00FEAE6388002B7FF4FAAE012103E06188AF
:100A7C0000297FF4F4AE2046FFF7E0FD00287FF458
:100A8C00E0AEECE6022829607FF4F6AE4B883B60C2
:100A9C00D7E600BFD80C0020920D002094F900007E
:100AAC0062780028BFF66FAF002A3FF464AF0A2AC1
:100ABC007FF4D5AE2A78002A3FF4D1AE69780429A8
:100ACC007FF45FAFA9788B427FF45BAF072B8EBFAF
:100ADC0000239B1993F8BB308CF80030D1E600BF93
:100AEC0013B5164C237DF3B9E26801AB8020A168E5
:100AFC00019204F081FE019AA3681344A360E36899
:100B0C009B1AE3606BB962B12369E2889A4208DDF3
:100B1C0094F8C82093FBF2F102FB11330BB90123BB
:100B2C00237502B010BD002380201A461946237588
:100B3C0002B0BDE8104001F077BC00BFD80C00201B
:100B4C00002330B585B002460D460193002858D1DC
:100B5C00002935D108220B460DEB020105F0A0F857
:100B6C00002804DA802001F0E9FB05B030BD2A4CE6
:100B7C00029AC4E903552260039ABDF80E306260F4
:100B8C0004F13802A2609DF908202575002A0ADBC1
:100B9C00802B04D9802001F0D1FB0020E3E713B1B6
:100BAC00C4E90333E1E7FFF773FD0028DAD0E288EC
:100BBC0023699A42D4BFE260E360FFF791FFD4E768
:100BCC00154C01ABD4E90215002D04DC05F068F8D6
:100BDC000028CADAC6E72A4605F062F80028D9DBF5
:100BEC00019AA3681344A360E3689B1AE360002B8B
:100BFC00BBD104F13803A360FFF74AFD0028DCD118
:100C0C00B0E78028B1D1044BDA68002AD5D11B7D1E
:100C1C00002BD2D1A9E700BFD80C0020054B064A07
:100C2C0058629A62054A0020DA62054A1A63054A3C
:100C3C009A617047D80C0020F9070008F1040008ED
:100C4C0099050008350500082DE9F3410446474D88
:100C5C004FF0FF334FF0FF32454803F045FA95F85B
:100C6C00B830002B7BD16B6A83B142482C62E861AF
:100C7C006E6A01F091FA01F001FA041E10DA3C4898
:100C8C0003F0A6FA204602B0BDE8F08100F0BEF8F1
:100C9C00FFF7C4FF6B6A002BE7D14FF0FF34EEE790
:100CAC0000F018FB041EEADB7378012B5AD1F379A0
:100CBC00002B57D00026684685F8C830ADF80230B6
:100CCC008DF804608DF8006001F0EAFA041ED6DBA2
:100CDC00802768468DF8007001F0E2FA041ECEDB26
:100CEC003046254904F0B5FF041EC8DB38462249BE
:100CFC0004F0AFFF041EC2DB204CDFF884804445B7
:100D0C001AD3002001F04AFB041EB8DBD5F8C4301E
:100D1C00802043F00103C5F8C43001F03FFB041EF2
:100D2C00ADDBD5F8C430002443F48033C5F8C430AF
:100D3C00012385F8B830A2E70026276A227FF3B298
:100D4C009A4201D82434DAE707EBC30257F8331080
:100D5C00107904F07EFF01360028EFD09DE76FF08C
:100D6C0077048CE76FF0150489E700BFD80C0020DE
:100D7C0078010020C90600084D0B00083002002045
:100D8C005402002030B51F4B8BB005AA03F110059F
:100D9C00144618685968083303C4AB422246F7D18D
:100DAC001B7810222370002101A806F02FFC1222C0
:100DBC000021154806F02AFC102101A801F080FD45
:100DCC0000281BDD0828B8BF082001AB09381A1809
:100DDC0000200D4912F8013F0AAC04EB131403F088
:100DEC000F0328336B4414F8144C13F8143C0130E3
:100DFC0008280C704B7001F10201EBD102480BB0CA
:100E0C0030BD00BF927D0008D10F00202DE9F04FBE
:100E1C00714B87B093F800B0BBF1000F03D06F4853
:100E2C0007B0BDE8F08F6D4C00264FF0011AB046AC
:100E3C003546B14623783BB9694B02349C42F3D119
:100E4C000123654A1370EAE76378052B1BD8DFE8AA
:100E5C0003F08C03C18C1D39402304A88DF810B00D
:100E6C00ADF812308DF814B004F0FEFE40B108233A
:100E7C0004A8ADF8123004F0F7FE08B1ADF812B0CA
:100E8C00BDF81230E37123781C44D3E7E378002BD0
:100E9C00F9D1A3786BB108F101085FFA88F8F2E791
:100EAC006B689C4207D024354E4B9D42F8D30020F2
:100EBC00B6E74D4DF8E7AB68002BECD04146204629
:100ECC009847E8E7002DF2D000222B7F9A42EED211
:100EDC00296AA07801EBC2010B79984201D001324A
:100EEC00F3E70127E078FBB200F003008DF8140063
:100EFC00207994F805C040EA0C20ADF8120094F962
:100F0C000200002826DA4FF0010C07F110000CFA51
:100F1C0000F010EA0A0F24D143F080008DF8100085
:100F2C0004A8CDE90213019204F09EFEDDE9012133
:100F3C00039BB0B99DF8102012F0800FA2700A71BB
:100F4C004FF001021DBF1033DBB29A40BA404AEA9F
:100F5C00020A98E70120B84010EA0A0F01D118469E
:100F6C00DCE70137102FBDD1B9E7032E1AD1FFF7FB
:100F7C0009FF074650B1FFF7CDF8024630B11028F3
:100F8C00A8BF10223946A01C06F032FB6FF00201FC
:100F9C002378091BE21804EB5303D14213D5013615
:100FAC00F6B270E7002EF1D1B9F1000F3FF47FAF2C
:100FBC00A4EB090389F80230C3F3072389F8033043
:100FCC0089F80480EBE702F801BC13F8010902F878
:100FDC00020DE2E7A14656E7D00F00208C0100205D
:100FEC002F0200205402002030020020094B002167
:100FFC001A4610B51C78844204D15C6814B102EB1B
:10100C00811010BD0131042903F14003F2D10020FD
:10101C00F7E700BFA40D00202DE9F34150F8283C60
:10102C000446103310F82C6C0AD1036950F8202CAC
:10103C00980736D5D2B9590715D5002344F8283C62
:10104C0054F8283C10330BD054E9077554F8148C21
:10105C0006F0BBF900284FD021462E4806F099F92E
:10106C0002B0BDE8F08143F004032361304654F82C
:10107C00241C01AB04F0C0FB10B16FF01503DDE7CD
:10108C00019A54F8243C134444F8243C54F8203C72
:10109C009B1A44F8203C54F81C3C134444F81C3C68
:1010AC00CEE7304654F8241C01AB01F00FFA0028AF
:1010BC00E3D1019D54F8243C2B4444F8243C54F8CF
:1010CC00203C5B1B44F8203C54F81C3C2B4444F85B
:1010DC001C3C002DB1D0304604F0F0FDB5FBF0F314
:1010EC0003FB1055002DA8D154F8203C002BA4D0A4
:1010FC00304601F019FAA3E744F8180CA4F11000DB
:10110C0003F0B6F8002DABD0424639463046A8471E
:10111C00A6E700BF580200204B1E012B73B50646F4
:10112C000D460FD8FFF762FF044668B9012D09D1AF
:10113C0001AB012230460DF1030101F0C7F9019B0F
:10114C00002BF5D102B070BD06F03FF904F12C0173
:10115C0008B1012D05D1084602B0BDE87040FFF77B
:10116C005BBF034802B0BDE8704006F012B900BF87
:10117C00580200202DE9F74F064615469846019176
:10118C0004F080FB044600285BD1EFF3118A102396
:10119C0083F31288BFF36F8FDFF8ACB0002200230B
:1011AC00584603F099F870B9DFF8A090A70109EB45
:1011BC008414636813F1100F14D10193584603F093
:1011CC0057F8019B06E00134042C0BF1400BE5D1E0
:1011DC006FF00B038AF31188BFF36F8F184603B0BF
:1011EC00BDE8F08F019B2061C4E902350C9B3046B1
:1011FC0063610D9B09F80760A3616FF00F03C4F8DE
:10120C003C80636004F05AFD58B1304604F056FD42
:10121C00B5FBF0F303FB10551DB1E36B43F0040376
:10122C00E36318F0020F07D007F12C01084849447A
:10123C0006F0AFF80023CDE7304601F075F9034610
:10124C00C8E76FF00F03C9E7C00D0020A40D002004
:10125C005802002010B5EFF31184102383F3128889
:10126C00BFF36F8FFFF7C2FE50B14368103307D145
:10127C006FF08B0300F12C014360044806F089F8F1
:10128C0084F31188BFF36F8F10BD00BF580200208C
:10129C00F8B5042510270D4CEFF3118687F312884F
:1012AC00BFF36F8F6368103307D16FF08B0308485F
:1012BC00636004F12C0106F06CF886F31188BFF31F
:1012CC006F8F013D04F14004E6D1F8BDA40D002060
:1012DC005802002070B50025094C0A4E31462046B4
:1012EC0006F03BF80122A4F110001146013505F07F
:1012FC00F8FF042D04F14004F0D1002070BD00BFB4
:10130C00D00D0020251000080123016981F84B3015
:10131C000B6833B191F849301BB10248083106F023
:10132C0038B87047580200200123016981F84A300F
:10133C000B6833B191F848301BB10248083106F004
:10134C0028B870475802002070B50569EFF3118674
:10135C00102383F31288BFF36F8FD5F8900004F03D
:10136C00F9F9044686F31188BFF36F8F30B1002270
:10137C000023034805F1180103F00CF9204670BD59
:10138C0058020020012370B582F8483013680D46CE
:10139C0014463BB192F84A3023B10E4802F10801D1
:1013AC0005F0F7FFD4F890305A89DB889A4205D1C2
:1013BC007DB904F118014FF47A7204E004F11801BC
:1013CC00002DF8D00022BDE870400023014803F046
:1013DC00E1B870BD5802002070B50E4681880446F5
:1013EC00C9B21548154604F02AFA10B394F9002036
:1013FC006378002A16DB202B04D0222B0ED06FF042
:10140C0085000AE02B681A6840F8102C9A8820F89E
:10141C000C2C9B7900F80A3C002070BD638800F806
:10142C00093CF9E7212BEAD10723103828603360F7
:10143C00F2E76FF01200F0E7A80E0020014608B5A5
:10144C00034804F009FA10B1012300F8073C08BD69
:10145C00A80E0020002103460C4AA0F84810106882
:10146C0083F89C10C3F8940090889279A3F89800A4
:10147C0083F89A2083F89B104022A3F89E1083F8DF
:10148C00A01003F14C0006F0C1B800BF387B000877
:10149C00002310B50469C4F8A8300C4BC4F8A400A0
:1014AC00596804F1A80269B9C3E9002204F10800E3
:1014BC00074905F052FF04F11800064905F079FFC1
:1014CC00002010BD0A605A60F0E700BFA80E002093
:1014DC00BB580008AD15000830B54FF40033426816
:1014EC00056942F2A10085B0CDE90103002385F81E
:1014FC009D30106AADF80C100A22007901A904F095
:10150C007BF9054C95F89D3023B9012005F077FE49
:10151C00013CF7D105B030BDA1860100002373B5A5
:10152C00102504698DF8071084F84830EFF3118604
:10153C0085F31288BFF36F8F0122D4F890000DF160
:10154C00070104F007F986F31188BFF36F8F0128A8
:10155C0013D005F03AFF10B994F8A130B3B90122B9
:10156C00BFF35B8F0C4B53E8001F002903D143E8FA
:10157C0000200028F7D1BFF35B8F0A22002304F16F
:10158C001801064803F006F802B070BD00210A20CD
:10159C0005F091FFCAE700BFA40E002058020020FE
:1015AC00F0B5D0F88C3005465B6885B01B6A1F7DA2
:1015BC00384604F067F9064650BB95F886303BB3C5
:1015CC00A86F0146C38831F80A2F9B1A9BB2B3F55A
:1015DC00806F28BF4FF4806303AA04F06CF80446B4
:1015EC00B0B18306A5F1180385F830600193094B5F
:1015FC0008BF00F1FF3422460399009338460223BA
:10160C00FFF7B8FDA86F224600F10A0104F089F833
:10161C0005B0F0BD9113000837B514460A1E0546F7
:10162C0021DDD4F88C0004F14C0104F093F8012373
:10163C0084F8493023683BB194F84B3023B11148FE
:10164C0004F1080105F0A5FED4F88C20938891894B
:10165C0012695B1A9BB2D31A3F2B04D8012384F86E
:10166C00A03003B030BD94F89E30002BF9D0064B5F
:10167C004022009328460123019404F14C01FFF70A
:10168C0079FDEEE75802002025160008F7B50D4647
:10169C0001461D4804F0C8F8044610B3064656F837
:1016AC00A439691E5F6805291BD8DFE801F01C1AF4
:1016BC00031C222610F8061C99B9012300F8063CDD
:1016CC003B6A3246187BFFF7A7FF14F85C2C42B933
:1016DC003B6A1146187D0D4B019600930223FFF7D0
:1016EC0049FD03B0F0BD304603B0BDE8F040FFF754
:1016FC00B1BE012304F8053CF3E710F8053C002BC0
:10170C00EFD00023F6E700BFA80E002091130008CD
:10171C0037B50024084D4FF0FF334FF48062284654
:10172C000649009402F0F8FE0549284605F053FEE0
:10173C00204603B030BD00BF58020020E80F002047
:10174C00B17D000808B50348034A0021121A04F0C1
:10175C00DBF908BD58020020E80F0020074808B547
:10176C00074A0849121A04F0D1F9BDE808400648A6
:10177C00064A0749121A04F0C9B900BF000000203C
:10178C0054020020D4820008000000200000002039
:10179C00D482000838B505460C4699B1D1E901232D
:1017AC000F48096803F07AFFD4E90423E1680D4877
:1017BC0003F074FFE1690C4803F070FFA1690B485A
:1017CC0003F06CFF012D05D1EFF3058108481039AA
:1017DC0003F064FF21462846BDE8384002F092BA77
:1017EC00BA7D0008EA7D00081A7E00082A7E0008EF
:1017FC00597E000830BFFFF7FDBF00BF2DE9F04157
:10180C0005460B4EDFF82C80324606EB0807CC1B46
:10181C002046094905F0ECFEA01942460021083C7F
:10182C0005F0F4FE6C6607F10800BDE8F08100BF1E
:10183C000000000004000000387B0008054B5A69CA
:10184C009B689A421FBF044A536843F0805353600D
:10185C00704700BF9C0F002000ED00E010B51D4C40
:10186C001D4803F01BFFA36A990130D51B4803F0F8
:10187C0015FF1E20A36ADA0103D5194803F00EFFE9
:10188C001F20144CA36A1B0303D5164803F006FF54
:10189C002120A36A590303D5134803F0FFFE22202D
:1018AC000C4CA36A9A0303D5104803F0F7FE2320CF
:1018BC00A36ADB0303D50E4803F0F0FE2420054A8F
:1018CC00936A6FEA03436FEA1343936210BD1D20C2
:1018DC00D0E700BF00ED00E06D7E0008867E0008BA
:1018EC009A7E0008B57E0008D47E0008FA7E0008B7
:1018FC00157F000870B5204C064620480D4603F0B5
:10190C00CDFEA36AD90435D51D4803F0C7FE1720B8
:10191C00A36A1A0503D51B4803F0C0FE1820164C09
:10192C00A36A9B050FD5184803F0B8FEA16BA36AF8
:10193C00180407D5154803F0B1FE1EB1A36A23F4B1
:10194C000043A36219200C4CA36A5A0503D5104816
:10195C0003F0A4FE1A20A36ADB0503D50D4803F09F
:10196C009DFE1B20044A936A43F47F439362002339
:10197C002B7070BD1620CBE700ED00E0417F000816
:10198C00587F00086A7F00087E7F0008987F000857
:10199C00AE7F0008CA7F000870B51F4C06461F4872
:1019AC000D4603F07BFEA36AD90632D51C4803F022
:1019BC0075FE1120A36A1A0703D51A4803F06EFEB0
:1019CC001220154CA36A9B070FD5174803F066FE2F
:1019DC00616BA36A180607D5144803F05FFE1EB1AD
:1019EC00A36A23F08003A36213200B4CA36ADA07CB
:1019FC0003D50F4803F052FE1420A36A064ADB06F7
:101A0C0058BFA36A936A43F0FF03936200232B70C1
:101A1C0070BD1020CEE700BF00ED00E0E37F0008B2
:101A2C00FA7F00086A7F00082E80000847800008B3
:101A3C005E8000082DE9F0415B4B04465F68002591
:101A4C008AB0C7F3080685F31188BFF36F8F02F0D5
:101A5C007F43B3F17F4F06D102F00C03082B13D157
:101A6C00524803F01BFE00252C464FF00008F31ED5
:101A7C008DF80780092B00F28580DFE803F00A79E6
:101A8C007D7583838383838110074CBF0C460125AE
:101A9C00EBE74748444E03F001FE8DF80780F36AEC
:101AAC009A0704D5434803F0F9FD00232FE0F36AAD
:101ABC00002B01DA4048F6E7F36A5B00F5D53F48A6
:101ACC0003F0ECFD7369A26943F480737361BFF397
:101ADC004F8FBFF36F8F736932F8022C23F480732E
:101AEC007361BFF34F8FBFF36F8F4DF602739A4242
:101AFC0008D0B36ADBB24BB301200DF10701FFF73D
:101B0C004BFF33E021682E4803F0C8FD23689DF895
:101B1C000720C2B902AE04F1200732462068616882
:101B2C00083403C2BC421646F7D1099AB5B3C2F3C6
:101B3C00080121B96FEA52226FEA42220992184633
:101B4C0002A9FFF727FE0AB0BDE8F081B36A13F4CF
:101B5C007F4F05D001200DF10701FFF7CBFE05E00B
:101B6C00B36AB3F5803FA0D3FFF778FE0346CEE708
:101B7C0000200DF10701C2E700200DF10701ECE791
:101B8C00104890E7104B17F4F87F1049104818BF15
:101B9C001946A6F1100203F081FD86E722F4FF72CC
:101BAC0022F00102CAE700BF00ED00E0AC800008A3
:101BBC00D8800008F08000081281000821810008FC
:101BCC00418100085E810008938000087E80000837
:101BDC0083810008044B5A6942F010025A615A6919
:101BEC0022F008025A61704700ED00E0EFF3088024
:101BFC00EFF3098101B57246FFF71CFF01BD00BF71
:101C0C000A4880F30888102080F3118808484FF4A4
:101C1C000061401880F30988EFF314800221084317
:101C2C0080F31488BFF36F8F03F081FFE82400204A
:101C3C00E8170020084B9B6883420BD1EFF3058318
:101C4C0043B1064B5A6842F080525A605A6A22F4E9
:101C5C0000425A6202F0B4BF9C0F002000ED00E07D
:101C6C0011498A684FF030001044EFF3098C80E87A
:101C7C00F01F102080F31288BFF36F8F0B4F4FF0C3
:101C8C0000664A698A603E60506E094C2060906E16
:101C9C000023936680F3118802F1300090E8F01F66
:101CAC008CF30988704700009C0F002004ED00E0C5
:101CBC00B00E00201EF0040F0CBFEFF30880EFF302
:101CCC000980816911F8021C0229FFD001B5724606
:101CDC0003F01EFF01BD00BF40B2002807DB01234B
:101CEC004109034A00F01F00834042F8213070473D
:101CFC0000E100E040B200280CDB01220649430958
:101D0C0000F01F008240203341F82320BFF34F8F97
:101D1C00BFF36F8F704700BF00E100E040B20028B6
:101D2C0001F10101ACBF00F16040064B4FEA01111B
:101D3C00C9B2ABBF00F5614000F00F0080F8001392
:101D4C001954704714ED00E0054B064A23F040434C
:101D5C0023F07F039360BFF34F8FBFF36F8F7047F8
:101D6C000000000800ED00E042F8203C009B0B490D
:101D7C0042F81C3C019B21F0010142F8183C029BEB
:101D8C0042F8081C42F8143C4FF0807342F8043CB3
:101D9C000023203A02658366704700BF790400086F
:101DAC0000B50B4B15469860426E0A4B0E461A60F6
:101DBC002C4686F309880020034B984720460021C7
:101DCC0000220023014C2047575B000879040008CF
:101DDC009C0F0020B00E00201022014B1A6170479E
:101DEC0000ED00E0002310210348C21801332B2B17
:101DFC0082F80013F9D1704700E100E008B5EFF369
:101E0C000583064A103B02EBC30152F833004968C4
:101E1C008847BDE80840FFF711BD00BFE87800080F
:101E2C000148006870470000B00E002008B5024B56
:101E3C001B689847002008BDB40E0020034B044AD1
:101E4C001860937843F0020393707047B40E00202F
:101E5C00F400002008B50649064821F00701C1F13D
:101E6C00005202F5A04203F0DAFB002008BD00BFCF
:101E7C00EF300020B80E00201F2809D8012303FAE8
:101E8C0000F0044B5B6998430CBF012000207047A5
:101E9C000020704700040140012300F01F021F289E
:101EAC0003FA02F39DBF034A002053616FF0150043
:101EBC00704700BF00040140044B18440023013359
:101ECC00994200F8012BFADC704700BF500100204A
:101EDC002DE9F041054600264FF001080E4F6B78B6
:101EEC00F4B2A34201D8BDE8F0812B781C44204603
:101EFC00FFF7C2FF68B12046FFF7CEFF57F834302A
:101F0C003BB107EBC40204F01F04516808FA04F05B
:101F1C0098470136E3E700BFC40E0020034660B1CA
:101F2C00B0FA80F2C2F11F02D2B205498856054AB6
:101F3C0011680B431360FFF7CFBEFF22F5E700BF1C
:101F4C005001002000040140024A136823EA0003F8
:101F5C001360704700040140032921D8DFE801F029
:101F6C00020C10190F4B9A6822EA00029A60DA6888
:101F7C0022EA0002DA6070470A4B9A680243F5E7DE
:101F8C00084BDA680243DA609A6822EA00029A6027
:101F9C007047044B9A6802439A60DA681043D86021
:101FAC00704700BF0004014030B5B0B1B0FA80F307
:101FBC00C3F11F03DBB20B4850F833408C4204D101
:101FCC0000EBC3056D68954205D044B940F8331059
:101FDC0000EBC3004260002030BDFF23EBE76FF045
:101FEC000F00F9E7C40E002060B1B0FA80F3C3F122
:101FFC001F03DBB20021044A42F8331002EBC30288
:10200C0051607047FF23F5E7C40E00200F2300F04A
:10201C00030204329200934043EA9000C3B2064A92
:10202C00023352F82320030C93FAA3F3B3FA83F38D
:10203C0002EA1040D84070470000014020F08002B6
:10204C00072A0BDC064B10F0800F03F590710CBFC8
:10205C0018460846242303FB0200704700207047F3
:10206C00C4050020014800F07FBF00BFE80200203B
:10207C000146014805F026B97808002030B58BB030
:10208C003C4C204605F0E1F800286FD0A3681B6893
:10209C001BB96FF004000BB030BD20463649984791
:1020AC0005460028F5D1354C354B014623600823F5
:1020BC0023710223A07209AA3248E380237204F030
:1020CC003EF80028E7DB099B2A461979186800F0CE
:1020DC0013FC0028DFDB204604F088FA0028D8D156
:1020EC00204604F0FFFA0028D3D1204604F0E1FA90
:1020FC0005460028CDD1402384F8E002A4F8DC3258
:10210C00A4F8FC3384F80004C4F8D83704F58264CE
:10211C00012260191146243505F0E3F8B5F5907FDE
:10212C00F6D1194910230222A1F50A7005F0BBF86B
:10213C00002200230024CDE906236FF00D030122B9
:10214C001249CDE90332CDE90144114B4FF48062C1
:10215C001048009402F080FA224621461420FFF722
:10216C00DDFD1420FFF7B8FD204694E76FF0120058
:10217C0091E700BF98770008707B0008E802002008
:10218C00005C0040507B0008A00A0020E8130020EF
:10219C000D22000808080020014BC3F8D802704734
:1021AC00E8020020014608B5044804F0B5FA0028FE
:1021BC0014BF6FF00400002008BD00BFE80200202F
:1021CC0008B513460206014605D5802800D12BB16F
:1021DC006FF0150010E0402B28BF402321F0800247
:1021EC000648920102F5B762024404F000FB002895
:1021FC0014BF6FF00400002008BD00BFE8020020EF
:10220C0073B51D4DA5F5B26405F128064FF0FF32EC
:10221C004FF0FF33284601A901F004FF9DF805009B
:10222C00FF2808D1D4F8D832002BEFD000219DF82C
:10223C0004009847EAE7242200F07F035343020688
:10224C004CBF03F57F7303F5377323449B68002B56
:10225C00DCD09DF8041098479DF804000028D5D1D7
:10226C00B4F89E22002AD1D094F99832002BCDDB01
:10227C003146FFF7A5FFC9E778080020030610B523
:10228C000C4607D431B10146044804F0C7FA20606B
:10229C00002010BD6FF01500FBE700BFE802002026
:1022AC00F8B5077804463846FFF7C8FE054670B106
:1022BC0060886B88227983422CD21F4E012AD6F873
:1022CC00D83707D103EB4001B1F5007F11D36FF084
:1022DC001500F8BD1844B0F5007FF8D2002239463D
:1022EC00304604F023FB62886A80D6F8D837134452
:1022FC000EE0184403EB00433946304604F016FB5D
:10230C0063885B006B806288D6F8D83703EB420396
:10231C00C6F8D83722796388012A04BF5B009BB2C8
:10232C002B802379032BD2D8DFE803F002020202C0
:10233C0000202B71CDE700BFE802002038B5054620
:10234C00FFF77CFE044638B12946064804F086FAAD
:10235C0028B90123637138BD6FF01500FBE76FF0EE
:10236C000400F8E7E802002038B50546FFF766FEE2
:10237C00044650B1437933B12946074804F0A4FA16
:10238C0030B96071E060002038BD6FF01500FBE7DC
:10239C006FF00400F8E700BFE802002070B50446B7
:1023AC00FFF74CFE0546A0B10D4E0379028821467D
:1023BC00304604F0C4F978B963B2002B0BDD06EBA0
:1023CC00841120462A8801F5B761BDE87040FFF7FB
:1023DC00F7BE6FF0150070BD6FF00400FBE700BF97
:1023EC00E802002010B50446FFF728FE90B10B4818
:1023FC0083681B691BB10A499847022801D0002049
:10240C0010BD2146074804F0CAF90028F7D06FF038
:10241C000400F5E76FF01500F2E700BF98770008AD
:10242C00707B0008E80200202DE9F8430646894637
:10243C0015469846FFF702FE00283ED033063CD5E1
:10244C0000F1140700220023384601F045FF044632
:10245C00B0BB04F0BAFF10B91420FFF74BFC802E70
:10246C0002D1402D28BF40254A462B4631461648FE
:10247C0004F0DCF9024658B1384601F0F9FE04F0DC
:10248C00A4FF10B91420FFF727FC6FF0040411E02F
:10249C00802E04D11DB101463046FFF791FE04F0A9
:1024AC0094FF10B91420FFF717FCB8F1000F01D0FE
:1024BC00C8F800502046BDE8F8836FF01504F9E722
:1024CC006FF00A04F6E700BFE80200202DE9F8439C
:1024DC000446884691461F46FFF7B0FD0546F0B10D
:1024EC002306C6681BD4B8F1000F13D04E4528BF85
:1024FC004E460369A4010B4904F5B7641C443246EB
:10250C004046214405F074F8EB689B1BEB602B698B
:10251C0033442B6107B13E600020BDE8F8836FF0B7
:10252C001500FAE7E802002010B50446FFF786FD17
:10253C0068B123060BD4C3680BB1002010BD05494C
:10254C00028801EB84112046FFF73AFEF5E76FF0A5
:10255C001500F3E7A008002037B5002340228021A6
:10256C000E4804F0ECF80023402219460B4804F006
:10257C00E6F800240A4D2819243401F079FEB4F54C
:10258C00907FF8D1074B00221B8801A8ADF80430CE
:10259C000023FFF76DFD03B030BD00BFE802002043
:1025AC00F80600203F7B000807B5064B0022DB88AD
:1025BC0001A8ADF804300023FFF75AFD03B05DF815
:1025CC0004FB00BF3F7B000807B5064B00221B89AC
:1025DC0001A8ADF804300023FFF74AFD03B05DF805
:1025EC0004FB00BF3F7B000813B500220821094BF8
:1025FC00ADF8042003F5B764C3E9BA12D3E9A60118
:10260C00002284E80300002301A8FFF731FD02B08B
:10261C0010BD00BFE802002038B51C4B0D461868F1
:10262C000B881446C3F30B03013B1B2B28D8DFE8A4
:10263C0003F00F1E1E1E0E27180F0F272727272704
:10264C0027272727270F2727270F27272716104845
:10265C0020602B68B3F5805F0BD2002038BD40089A
:10266C00F6E703F0E5FB70B103F0E2FBF0E70020C6
:10267C00EEE7C3F313330133B0FBF3F02060ECE768
:10268C006FF08500EAE76FF00400E7E740010020F7
:10269C0000127A00F8B5384F03F0CCFB384603F043
:1026AC00C6FB00F03BFC354C354A63681578C3F328
:1026BC000313D35C47FA05F520FA03F6AE4202D2B7
:1026CC00284601F0F9FA236823F480232360236859
:1026DC0043F48033236023689B03FCD5636803F0C9
:1026EC000C03082B15D12368980706D4236843F0F4
:1026FC000103236023689907FCD5636823F0030367
:10270C006360636813F00C0FFBD1636823F0F00374
:10271C006360236823F08073236023689A01FCD4E0
:10272C0000F032F8236843F08073236023689B0128
:10273C00FCD5636823F0F0036360636823F0030344
:10274C0043F002036360636803F00C03082BFAD1B7
:10275C00AE4202D3284601F0AFFA0A4B00201F60AC
:10276C00636823F4E06343F480636360636823F479
:10277C0060536360F8BD00BF00A24A040010024021
:10278C005782000840010020054A536823F47C134B
:10279C0043F4E8135360536823F480035360704789
:1027AC000010024008B5074804F04FFD38B1064848
:1027BC00FFF744FB0448FDF73BFE002008BD6FF01B
:1027CC001200FBE778780008D92700080A2838B5EA
:1027DC000446074D04D1AB680D2128465B68984729
:1027EC00AB6803485B68E1B29847204638BD00BF30
:1027FC00787800082DE9F843D0F804909046074605
:10280C00D9F808000D461E4603F003FAB8F5001F70
:10281C00044616D12846D9F80840FFF7F7FB844246
:10282C000CD1294603F0F5F90446FFF78DFB204641
:10283C00FFF7DAFB00212046FFF78EFB0020BDE8F6
:10284C00F883B8F5800F20D0B6F1806F19D0B6F1AF
:10285C00C06F18D0B6F1007F1AD102263A46204636
:10286C000E49FFF7A1FBB0B92846D9F8081003F0C0
:10287C00D5F920463146FFF76FFB2046FFF74EFB9C
:10288C00DCE70126EAE70326E8E76FF08500D6E7E8
:10289C006FF01500D3E76FF00F00D0E7595F000819
:1028AC0008B5416805480C3183681B681BB1984713
:1028BC0000EAE07008BD6FF05700F9E79877000860
:1028CC000C291FB528BF0C210C460A4BD3F8F02756
:1028DC0012BA0192D3F8EC2712BA0292D3F8E83765
:1028EC000A461BBA01A9039304F082FE204604B0E9
:1028FC0010BD00BF00F0FF1F00222DE9F347134667
:10290C0004468A4211D22BB954F83230C3F38923CE
:10291C000132F6E754F83200C0F389200028F7D0D2
:10292C0098425ED101329142F4D8E3B12E4A13F0B1
:10293C00010F906940F00100906192694FEA1320F9
:10294C0002F001020192019AC3F3440200FA02F070
:10295C00264A09BF5368D369034343F0E06316BFAB
:10296C0003435360D361224F04EBC106A64201D14D
:10297C00002011E0D4E9002512F003090FD145F035
:10298C004105C2F3870AC2F3831257F82280B8F1CB
:10299C00000F15D16FF0120002B0BDE8F087B9F14D
:1029AC00020FEED0B9F1010F07D115F4C07F0CBFA7
:1029BC0045F0020545F00405E3E745F00105E0E7C5
:1029CC00404604F042FC0028E4D04B462A464046E0
:1029DC000AF00F0103F09EFB002804F10804C5DA8D
:1029EC00DAE76FF01500D7E7001002400000014055
:1029FC00DC7B000843681B6803F1140252E8002FCB
:102A0C0042F0010203F1140040E800210029F3D147
:102A1C000D4A934207D0A2F57442934203D002F5BB
:102A2C008062934203D11A6942F040021A6103F1A9
:102A3C000C0252E8002F42F4807203F10C0040E8C3
:102A4C0000210029F3D170470038014043681B680E
:102A5C0003F1140252E8002F22F0010203F11400DA
:102A6C0040E800210029F3D10D4A934207D0A2F58A
:102A7C007442934203D002F58062934203D11A69E7
:102A8C0022F040021A6103F10C0252E8002F22F4EA
:102A9C00807203F10C0040E800210029F3D170474B
:102AAC0000380140F8B50C46036941681D6823796C
:102ABC00012B35D09A1E56425641B6026279022A33
:102ACC0096BF384F4FF4005C37F812C0A279042A35
:102ADC0029D0003B18BF01231B03E279012A0A68A5
:102AEC000CBF4FF440770027A542D1681ED121F4CA
:102AFC00B05131430B43D360136923F4405343EA81
:102B0C000C03136143681A68536923F440733B4305
:102B1C0053612968406803F026FC00EAE070F8BDB8
:102B2C004FF4C066CAE74FF48053D6E701F4C06196
:102B3C008E421FBFD16821F4C0613143D16042681D
:102B4C0011680A6902F4405294451FBF0A6922F4C5
:102B5C00405242EA0C020A6142681168CA6802F4E7
:102B6C00805293421FBFCA6822F480521343CB6039
:102B7C0043681A68536903F440739F421FBF53693B
:102B8C0023F440733B43536121682B68994206D070
:102B9C00406803F0E8FB0028C1DB23682B600020B1
:102BAC00BDE700BF687D0008F8B50C464368A67900
:102BBC001D6803691F680B794979012B35D10229EE
:102BCC004AD9042E45D04FF4C0624FF480534FF0D5
:102BDC00030C8C453DD1002B77D0002A14BF032267
:102BEC000422B24235D1E37963B1012B31D1394B97
:102BFC009D4207D0A3F574439D4203D003F5806337
:102C0C009D4226D1EB68214623F40053EB60FFF77D
:102C1C0049FF00281DDBEB6843F40053EB6094E89C
:102C2C00030087E80300002015E0022B06D10229DF
:102C3C001FD9042E0DD04FF48062C6E702290A4634
:102C4C001FD9042E02D123B90022BEE713BB0329DE
:102C5C00C7D06FF08500F8BD1F4A042E32F811C0A2
:102C6C00F7D04FF4C062033B012BF2D94FF48053E1
:102C7C0019E0194A042E32F811C0EAD04FF48062E0
:102C8C00F1E7154A042E32F811C009D1002BE0D11E
:102C9C001A46EBE7033B012BDBD9D5E70022E2E731
:102CAC00002BFBD11A46BCF5805F08D0BCF5405F09
:102CBC0008D0BCF1000F8AD14FF0010C89E74FF01E
:102CCC00000C86E74FF0020C83E7002A14BF0222A7
:102CDC00032286E700380140687D00084FF0E023AE
:102CEC0010B50F499C691A6908689B690D4902F473
:102CFC00803234B993B903464AB90A681044C01AF1
:102D0C0010BD002B08BF03460AB9A342F5D90A68C7
:102D1C0002440A604FF0E0221269EEE70446F3E742
:102D2C00980F0020940F00201022094B002083F8EC
:102D3C0023204FF4E152074B1A60074B41F61F4218
:102D4C0018604FF0E0235A61072298611A617047AE
:102D5C0000ED00E0980F0020940F0020684620F052
:102D6C0007018D4619B5FFF7B9FF1149114B0868DA
:102D7C00D3E90042001942F10002C3E9000200232A
:102D8C000B604FF4E1530C4AD2E90041001BB0FB3D
:102D9C00F3F043431B1941F10001C2E9003102F089
:102DAC00FFF8FEF74BFDBDE819408546704700BFA4
:102DBC00940F0020D00A0020C80A00202DE9F04111
:102DCC00DFF8E08099B1421C0BD14FF0E02213697F
:102DDC0023F0010313614FF07F43C8F80030BDE8C6
:102DEC00F081D8F80060012807DC00270BE0431CB9
:102DFC00D8F80060F7D140F6191040F61A13984233
:102E0C00A8BF1846471EEFF31185102383F31288D1
:102E1C00BFF36F8FFFF762FF4FF0E023224C9969ED
:102E2C00D4E9002380184FF0000243F10003C4E9F9
:102E3C0000031E4B1A601E4B1A68831A2ED44FF4D3
:102E4C00E15C0CFB073303F5E0531F33B3FBFCF7DA
:102E5C00131A0CFB0733B3F5806F38BF4FF4806344
:102E6C00144A934228BF13464FF0E022C8F80030B2
:102E7C00013B90695361002381429361A1EB0003F4
:102E8C0038BF9B19D4E900125B1842F10002C4E967
:102E9C00003285F31188BFF36F8FA0E74FF4806386
:102EAC00E2E700BF980F0020D00A0020940F00200A
:102EBC00C80A002020DFFF0038B5EFF3118510237E
:102ECC0083F31288BFF36F8F084B1C68084B1B6889
:102EDC00E41AFFF703FF85F31188BFF36F8F4FF4EC
:102EEC00E1532044B0FBF3F038BD00BFD00A002002
:102EFC00C80A002038B5EFF31185102383F312882C
:102F0C00BFF36F8F044B1C68FFF7E8FE85F3118845
:102F1C00BFF36F8F204438BDD00A00200D4A536890
:102F2C0003F00C01082912D10B48C3F38341DB03D6
:102F3C00405C09D55368094AC3F340435043084ADF
:102F4C00D35CB0FBF3F07047064B58437047034813
:102F5C00704700BF001002406982000800127A001E
:102F6C006782000800093D002DE9F04F044685B04A
:102F7C00006803F076FE10F4004500F071842827F9
:102F8C00DFF800822068B0F84430190402D405B090
:102F9C00BDE8F08FB0F84450A9B215F00F0540F021
:102FAC00C48011F0100128D103889BB203EA0803F6
:102FBC0043F4004303802268207CB2F850309BB26B
:102FCC0003EBC00302EB4302B2F80434626AC3F3AE
:102FDC0009031A44E3622046626202F092FE637BAC
:102FEC00002BCFD0A26A2168002ACBD1637B43F09F
:102FFC008003A1F84C306273C4E70588ABB215F4BA
:10300C00006521D0B0F8503094F850219BB203EBFE
:10301C00C20300EB4303B3F80C34B4F85621C3F3EA
:10302C000903C4F86C3104F5267104F0CCF822685D
:10303C002046138823F070031B051B0D43F08003FF
:10304C001380FFF7D1FA9DE71B049BD5038823F06F
:10305C0070031B051B0D43F080030380206894F85C
:10306C005021B0F850309BB203EBC20300EB43038A
:10307C00B3F80C34C3F30903C4F86C318BB1D4F836
:10308C00641171B1B4F8562104F09DF8D4F8643190
:10309C00D4F86C21294613442046C4F8643102F05C
:1030AC0016FE226811880E058BB23FF56BAF03F448
:1030BC004053B3F5405F3FF465AFB2F8501002F2E5
:1030CC000C4289B2535AC3F309035352D4F86031FA
:1030DC003E2B1ED95809DD06535A08BF00F1FF30AC
:1030EC009BB243EA80236FEA43436FEA53439BB29C
:1030FC0053522268138823F4804323F070031B047B
:10310C001B0C83F4405343F4004343F080031380BF
:10311C0038E70BB9535AE6E75808DB07535A48BF50
:10312C0001309BB243EA8023E1E730F825301E04DE
:10313C001FFA83F940F18B8030F8253007FB0541ED
:10314C0023F070031B051B0D43F0800320F8253082
:10315C0091F85C312068BBB9B0F8503091F850212F
:10316C009BB2063303EBC20300EB4303B3F80064DA
:10317C00C6F30906002E4ED03346B1F85621D1F8CD
:10318C00641146E00F8FFFFF91F8533191F85021F5
:10319C00022B40F0EC80B0F850604FEAC20BB6B294
:1031AC0019F4804ED1F8683100F5806A5E4409F05C
:1031BC00400C00F09D8002363AF81660C6F3090602
:1031CC009E4200F281809B1BC1F86831002B7ED09F
:1031DC00BCF1000F13D0282303FB0543226893F89E
:1031EC00501132F8213023F4E04323F070031B0418
:1031FC001B0C43F4004343F0C00322F8213056B1BA
:10320C002821334601FB0541B1F85821D1F864114E
:10321C00206803F0D8FF07FB05F16318D3F86C2185
:10322C003244C3F86C21D3F864213244C3F86421CE
:10323C00D3F8682122B1D3F860319E4280F0CE8061
:10324C0007FB0543204693F8501102F040FD19F09E
:10325C00800F22683FF496AE32F8253007FB05F656
:10326C009BB203EA080343F4004322F82530A31968
:10327C00DA7C012A40F0EA80002005FB0772A0509E
:10328C001A7FCAB119F0400900F0BD805A7C002A9F
:10329C0040F0AB802268197CB2F8500002F2044373
:1032AC0080B209010344CA5AC2F30902CA52CA5A6B
:1032BC0092B242F40042CA52282303FB0543197C04
:1032CC00204602F01EFD5DE60023C1F8683130F89F
:1032DC00223023F4804323F070031B041B0C83F473
:1032EC00005343F4004343F0800320F822306FE78F
:1032FC0006363AF81660C6F309069E4224D89B1B84
:10330C00C1F8683113B3BCF1000F13D1282303FBB0
:10331C000543226893F8501132F8213023F4E0432E
:10332C0023F070031B041B0C43F4004343F0C00355
:10333C0022F82130002E3FF46EAF282101FB05410D
:10334C003346B1F85A2161E7C1F868E130F8223010
:10335C0023F4804323F070031B041B0C83F40053F1
:10336C0043F4004343F0800320F82230CBE730F8DD
:10337C00223023F4E04323F070031B041B0C43F4B2
:10338C00004343F0C00320F82230206891F85031FC
:10339C0030F82320DB0012F4804FB0F8502092B2AA
:1033AC000ED00232134400EB4303B3F80064C6F3AF
:1033BC000906002E3FF42FAF3346B1F85821DEE654
:1033CC00134400EB4303B3F80C64C6F30906002E58
:1033DC003FF421AF3346B1F85A21D0E601F5A8717C
:1033EC002068214403F053FC31E7012A7FF464AFD9
:1033FC0022681B7CB2F8501002F2044289B21B0105
:10340C000A44985258E7597C226889B9B2F850108E
:10341C001B7C89B202F20C421B010A44995AC1F37B
:10342C0009019952995A89B241F40041995243E7E2
:10343C0001297FF441AFB2F850101B7C89B202F223
:10344C000C421B010A4423F8029035E72068197CD2
:10345C0019F4807C9A6A4FEAC10B00F5806A1BD183
:10346C00B0F85050ADB25D4402353AF81550C5F382
:10347C000905954202D3C3F828C021E7521B9A6272
:10348C005A6A06F110012A445A62DA6A21442A4423
:10349C00DA6203F0FCFB75E5B0F850C019F0400E91
:1034AC001FFA8CFCDC4409F4804600F0EA800CF135
:1034BC00020C3AF81CC0CCF3090C944510D3002232
:1034CC009A625B7CB6B2002B55D0012B63D1B0F85D
:1034DC00503000F204409BB21844090142525AE0A9
:1034EC00A2EB0C029A62002E40F09880282202FB7C
:1034FC00054292F83410012940F00E81516A614462
:10350C005162D96A6144D962136B116A8B42C0F063
:10351C0094805B1A1363282000FB0540467C2268CC
:10352C008BB2002E40F0A080B2F85060007CB6B296
:10353C0002F2044200013244865A3E29C6F30906BF
:10354C00865240F285804E09C906815A08BF06F1A1
:10355C00FF3689B241EA86216FEA41416FEA514157
:10356C0089B28152282101FB05410A8B496A2068E6
:10357C0003F07DFBD0E0B0F8503000F204409BB279
:10358C0018440901435AC3F309034352435A9BB2EB
:10359C0043F400434352282202FB0542517C23682A
:1035AC00127C79BBB3F8501003F20C4389B20B4474
:1035BC0011015A5AC2F309025A525A5A6FEA42423C
:1035CC006FEA524292B25A524FF0280909FB054950
:1035DC00204699F8101002F094FB002E00F09C800D
:1035EC0099F81010226832F8213023F4E04323F0CC
:1035FC0070031B041B0C43F4404343F0800322F87C
:10360C00213089E00129DFD1B3F8501003F20C43CB
:10361C0089B20B44002112019952D5E730F82120D0
:10362C0022F4E04222F070021204120C42F44042E6
:10363C0042F0800220F8212058E71BB9614682F83D
:10364C00343068E7002182F834101163194662E7C0
:10365C0009B9815A80E74E08C907815A48BF01361B
:10366C0089B241EA86217BE7012E7FF47BAFB2F869
:10367C00501002F2044289B20A44017C09015352EF
:10368C0070E70CF1060C3AF81CC0CCF3090C94450D
:10369C0058D9C3F828E0B6B2282303FB05435B7C5A
:1036AC00002B40F0A180B0F8503000F204409BB2E7
:1036BC0018440901435AC3F309034352435A6FEAAE
:1036CC0043436FEA53439BB24352282202FB054209
:1036DC00517C2368127C002940F09280B3F8501082
:1036EC0003F20C4389B20B4411015A5AC2F309027A
:1036FC005A525A5A6FEA42426FEA524292B25A52A4
:10370C004FF0280909FB0549204699F8101002F0E2
:10371C00F8FA002E3FF464AF282303FB054522681A
:10372C00297C32F8213023F4E04323F040031B04BE
:10373C001B0C83F0300343F4004343F0800322F866
:10374C0021301FE4A2EB0C029A62B6B2002AA3D07D
:10375C006EB930F8212022F4E04222F070021204FB
:10376C00120C42F4404242F0800220F82120282220
:10377C0002FB054292F834100129CDD1516A614403
:10378C005162D96A6144D962136B116A8B4244D37A
:10379C005B1A1363282000FB0540467C22688BB221
:1037AC00002E51D1B2F85060007CB6B202F20C423D
:1037BC0032440001165A3E29C6F30906165237D96F
:1037CC004E09C906115A08BF06F1FF3689B241EA03
:1037DC0086216FEA41416FEA514189B21152282189
:1037EC0001FB05414A8BC1E6012B7FF46EAFB0F8AB
:1037FC00503000F204409BB218440901002363E7E7
:10380C0001297FF47DAFB3F8501003F20C4389B259
:10381C000B4400211201995272E71BB9614682F8E0
:10382C003430B7E70021116382F834101946B1E740
:10383C0009B9115ACDE74E08C907115A48BF0136CC
:10384C0089B241EA8621C8E7012EC8D1B2F85010DE
:10385C0002F20C4289B20A44017C09015352BEE7C0
:10386C00420512D522682046B2F8443023F4806316
:10387C001B041B0CA2F84430FEF76EFE29462046B2
:10388C0005B0BDE8F04F02F047BF43040AD52268EB
:10389C00B2F8443023F480431B041B0CA2F84430D0
:1038AC00FFF775BB870405D52268B2F8443023F4C2
:1038BC000053F1E710F480521AD022682046B2F877
:1038CC00403023F004031B041B0CA2F84030226888
:1038DC00B2F8403023F008031B041B0CA2F8403054
:1038EC00FEF772FE2268B2F8443023F48053D3E71B
:1038FC0006054DD56846216805460B4601F12006A4
:10390C0033F8047B9E4225F8027BF9D1B1F84030A4
:10391C009BB243F00103A1F840302168B1F840306C
:10392C0023F001031B041B0CA1F840302168B1F8F3
:10393C0044305D05FBD5B1F8443023F480631B049F
:10394C001B0CA1F84430236830F8021B9952043246
:10395C00202AF8D122682046B2F840309BB243F0BE
:10396C000803A2F840302268B2F8443023F4006314
:10397C001B041B0CA2F844302268B2F840309BB2F6
:10398C0043F00403A2F84030FEF70EFEFFF7FFBA37
:10399C0082050DD522682046B2F8443023F400731A
:1039AC001B041B0CA2F8443002F0B5FEFFF7EFBA73
:1039BC00C3057FF5ECAA2268B2F8443023F4807377
:1039CC006AE700BF70B50C78034630F82420C8783D
:1039DC0022F4EC4222F070021204120C032803D8D9
:1039EC00DFE800F0464D4B49012048F280052A43A0
:1039FC0023F824200C78AD4E33F8242092B23240B8
:103A0C0022432A4323F824200A7B0C78002A40F016
:103A1C009780CA8803EB04154C78520852008CB37B
:103A2C00B3F85040A4B22C44A4F800240C7833F81A
:103A3C002420550609D533F8242092B2324042F4A2
:103A4C00004242F0C00223F82420CA780C78012AE4
:103A5C0033F82420964992B202EA010218BF82F090
:103A6C00200242F4004242F0800223F8242070BD70
:103A7C0042F40072B9E742F4C0620020B5E742F4A8
:103A8C008062FAE7B3F85040A4B22C44A4F808249E
:103A9C000A78B3F8505003EB0212ADB202F20C42AA
:103AAC00545BC4F3090454530C693E2C2FD966099A
:103ABC00E406545B08BF06F1FF36A4B244EA862440
:103ACC006FEA44446FEA5444A4B254530C7833F86C
:103ADC00242055040DD533F8242022F4E04222F0A2
:103AEC0070021204120C42F4404242F0800223F89D
:103AFC00242009786F4CB1B91A8892B2224082F412
:103B0C00405242F4004242F080021A80AFE70CB9F6
:103B1C00545BD5E76608E407545B48BF0136A4B292
:103B2C0044EA8624D0E733F8212092B2224082F472
:103B3C00005242F4004242F0800223F8212096E722
:103B4C00CA78022A33F8242065D192B2324042F46A
:103B5C00014242F0800223F824200A780C89B3F841
:103B6C00505003EB02126408ADB202F5806264009F
:103B7C0054530A784C89B3F8505003EB0212640882
:103B8C0002F581626400ADB254534A780C78002A75
:103B9C004BD133F8242052040DD533F8242022F4D1
:103BAC00E04222F070021204120C42F4404242F045
:103BBC00800223F824200C7833F8242056060DD5E7
:103BCC0033F8242022F4E04222F070021204120C8A
:103BDC0042F4004242F0C00223F8242048F2800450
:103BEC000D7833F8252022F4804222F07002120462
:103BFC00120C82F44052224323F82520097833F822
:103C0C00212022F4E04222F040021204120C144350
:103C1C0023F821402BE722F4E24222F07002120436
:103C2C00120C154323F8245097E733F8242055043D
:103C3C000DD533F8242022F4E04222F07002120455
:103C4C00120C42F4404242F0800223F824200C78FB
:103C5C0033F8242052060DD533F8242022F4E04208
:103C6C0022F070021204120C42F4004242F0C00224
:103C7C0023F82420CA780C78012A33F824200C4D20
:103C8C0092B202EA050218BF82F0200242F400420E
:103C9C0042F0800223F82420097833F8212022F402
:103CAC00804222F070021204120C42E78F8FFFFF49
:103CBC00BF8FFFFF8FBFFFFFD8B10F4B984216D8B5
:103CCC000E4B984294BF002001200D4A136823F03C
:103CDC00070303431360136803F0070398421CBFE8
:103CEC00136803F00703C01A18BF012070470220A5
:103CFC00EBE70120704700BF006CDC0200366E0160
:103D0C000020024038B5EFF31185102383F312889D
:103D1C00BFF36F8F064B9C6803F0AAFA85F31188EA
:103D2C00BFF36F8F2046BDE83840FDF783BF00BF5F
:103D3C009C0F002038B50A4B53F82040013053F843
:103D4C002050A54200D838BD606830B1037EDB0737
:103D5C0001D403F062FA0834F3E723689847FAE7D2
:103D6C00447D0008012270B5294B032086B01A70DF
:103D7C00FFF7E0FF01F08AF90420FFF7DBFF254C89
:103D8C00254D2646AE4204F1300410D300F01EFE41
:103D9C00204C224EAC4226D300F02CFEFCF712FB3A
:103DAC001F4A938923F00103938106B070BD54F828
:103DBC000C3C059354F8103C049354F8143C0393B6
:103DCC0054F8183C029354F81C3C019354F8203CD2
:103DDC00009354E90A2354E90C0100F005FC54F853
:103DEC00303C5E65CDE7D4E90A23B3F1FF3F08BF51
:103DFC00B2F1FF3F05D052EA0301206803D100F075
:103E0C00B5FE3034C6E73146183001F039F8F8E722
:103E1C00E30F0020407A0008407A0008A3740008E1
:103E2C00480B0020702370B5134E012203FB006673
:103E3C00002386B0CDE904230F220193CDE9023291
:103E4C0014230E4D0E4903FB0055044601EB0021D3
:103E5C004FF4807230460B4B009500F0C5FB337C61
:103E6C002C7423F004033374074B013403EBC42389
:103E7C00EE606B6006B070BDD80A00209C0F00206D
:103E8C00E81F002083720008E8170020BFB500204F
:103E9C00FFF750FF264B83F30888264C00256369F7
:103EAC00254F43F400736361F02384F82230E577E7
:103EBC0025766576A57684F82050636A43F4E02372
:103ECC006362FDF787FEFDF787FF4FF0FF331B485A
:103EDC00A362E36200F0ECFBFCF7F4FA0120FFF7BD
:103EEC0029FF0220164CFFF725FF00F0B7FD154BFC
:103EFC0015495C61154B4FF48062059301232046F4
:103F0C00CDE90353CDE901553B46009500F06CFB20
:103F1C000646227C204622F00402227403F098FA12
:103F2C002846FFF77FFF3A4631462046FDF738FF1B
:103F3C00E81F002000ED00E0713D0008B80B0020E8
:103F4C00480B00209C0F0020E820002079820008FC
:103F5C002DE9F34104460E469DF8200004F10808B3
:103F6C00EFF31187102181F31288BFF36F8F256A4D
:103F7C00E1688D4242D22568AC4219D0C5B12846C1
:103F8C0003F084F905F1180003F0FEFAA26800248E
:103F9C003146686903F02CFB2846EC6603F058FAAE
:103FAC004046394600F0ECFC204602B0BDE8F081FA
:103FBC00A268A8B13146E06903F01AFBE369A26874
:103FCC0013446269E361934201D12369E3610020E8
:103FDC00236A0133236287F31188BFF36F8FE4E701
:103FEC00A1692369994208BF6369314608BFA3617F
:103FFC00A069801AA06103F0FBFAE8E752EA03011A
:10400C000AD00749404689684E61CDE900233946FC
:10401C00224600F021FCC8E76FF02200DBE700BF6E
:10402C009C0F0020F7B50446084604F10807EFF38F
:10403C001186102181F31288BFF36F8F216A00293A
:10404C0039D0A268A16903F0D3FAA369A2682568E4
:10405C0013446269A361934204BF2369A361236A79
:10406C00AC4203F1FF33236233D02846002D31D00C
:10407C0003F00CF905F1180003F086FAA2686969DF
:10408C00E06903F0B5FAE369A26828461344626953
:10409C00E361934204BF2369E361236A0133236222
:1040AC000024EC6603F0D4F93846314600F068FC85
:1040BC00204603B0F0BD52EA030110D009498968CB
:1040CC004861CDE9002331462246384600F0C4FB56
:1040DC00EFE7002086F31188BFF36F8FE9E76FF0ED
:1040EC002200F7E79C0F00202DE9F3410446174608
:1040FC001E46EFF31188102383F31288BFF36F8FE2
:10410C00C368314A7BB180689168884219D057EAFC
:10411C00060318D188F31188BFF36F8F6FF00F006F
:10412C0002B0BDE8F081916891F90E100133E360A3
:10413C0093682161A36088F31188BFF36F8F00200F
:10414C00EEE72169F2E790F90E3091F90E109942E1
:10415C00A8BF19468B422DDD03F0BBF8054622465D
:10416C004146CDE90076194800F076FB0028E6D0F0
:10417C00EFF31186102383F31288BFF36F8FA068BF
:10418C00D0B1236821699C420AD04BB193F90E300F
:10419C009942A8BF19466FF07F039942B8BF1946E0
:1041AC0003F097F840B13146084800F0E9FB6FF096
:1041BC000A00B5E70025D2E7002DF4D186F311886B
:1041CC00BFF36F8FF3E700BF9C0F0020E40F0020BC
:1041DC00F8B583680546002B3FD0234A926893427A
:1041EC003ED1C368012B03D9013BC3600020F8BD4D
:1041FC00EFF31187102383F31288BFF36F8F0169DC
:10420C00806803F066F82C68A54207D10023C5E945
:10421C00023387F31188BFF36F8FE7E7002CF5D0DB
:10422C00D4E90032002613605A60237CC4E900668E
:10423C0023F002032374A66004F1180003F0A4F920
:10424C00AC6094F90E3020462B61E66603F000F961
:10425C003946064800F094FBC8E76FF01500C6E736
:10426C004FF0FF30C3E700BF9C0F0020E40F00208D
:10427C0070B5EFF31186102383F31288BFF36F8FA1
:10428C000468A0421AD0CCB1D4E9003200251360E6
:10429C005A60237CC4E9005523F002032374A56003
:1042AC0004F1180003F070F92046E56603F0D0F82D
:1042BC003146BDE87040074800F062BBD0E90232DD
:1042CC009A4218BF0133836086F31188BFF36F8F56
:1042DC0070BD00BFE40F002013B5EFF31181102463
:1042EC0084F31288BFF36F8F846844B1013C8460FF
:1042FC0081F31188BFF36F8F002002B010BD52EA1A
:10430C00030406D181F31188BFF36F8F6FF00F0098
:10431C00F3E7CDE900230246014800F09DFAECE7F3
:10432C00E40F00202DE9FF41044610274C4EEFF31B
:10433C00118887F31288BFF36F8F656FF5B902216F
:10434C0004F18C0002F0D9FF002865D004F184053B
:10435C0000220121284603F0DEF80028F8D10023C2
:10436C004FF0FF3202934FF0FF334146CDE900236B
:10437C003C4804F17C0200F0C3FCD8E7A26F2B6828
:10438C009542636708BFA367D4F88C3043F00203EF
:10439C00C4F88C30EB6823F0040343F00103EB60AA
:1043AC006B6888F31188BFF36F8F28469847EFF33B
:1043BC00118887F31288BFF36F8FEB68D80623F050
:1043CC00010236D4EA60EB689A0716D5306823F000
:1043DC000203EB6088B10021036870B1426895421A
:1043EC0035D1036869BB72683360824200D1736057
:1043FC00002340F8083BFFF73BFFD4F88C3023F048
:10440C000203C4F88C3088F31188BFF36F8FDB057F
:10441C008DD400F02BFB8AE7D4F88C30D9069ED5CE
:10442C00C4F88C0088F31188BFF36F8F04B0BDE81B
:10443C00F08123F01103EB6005F11000FFF718FF7A
:10444C00C1E70B607368834208BF7160D0E723B18A
:10445C001A68014618461346BFE71A46F9E700BF2B
:10446C00BC0F0020E40F0020F8B5C36804469A077F
:10447C000F46C3F340062DD45B071BD40B680BB956
:10448C0083680B60E368DD0742BFA36802263B60CC
:10449C003D6858BF0126002D39D01E4B9A682B6FF2
:1044AC009A420AD0D5F88C30D807C3F3800214D4C2
:1044BC006FF0120600233B6024E002F086FFD5F873
:1044CC008C300028F0D1D907C3F3C002F0D552B11B
:1044DC005B0708D46FF00F06ECE7002AFAD1C3F3A0
:1044EC00C003002BF6D100232360AB6F63B9C5E981
:1044FC001D44284602F00CFFE36843F00403E3601C
:10450C003B68A3603046F8BD1C60AC67F1E76FF008
:10451C001506CFE79C0F0020F0B50446002089B0AB
:10452C00C4E91D000E9D04F17C00C4E91F0004F1D8
:10453C008400C4E921004DB32879002840F2011011
:10454C0008BF0120C4F88C0000204FF0FF364FF05C
:10455C00FF37CDE90330CDE90100CDE906672046F0
:10456C000B4B009400F078F855B1296811B1204636
:10457C0002F031FF6B791BB1A38943F00103A381D6
:10458C00204600F0F3FA246709B0F0BD0120D9E70A
:10459C003143000837B501900846EFF31184102120
:1045AC0081F31288BFF36F8FC16811F01E0F16D103
:1045BC0053EA020508D101A9FFF756FF84F31188CD
:1045CC00BFF36F8F03B030BD41F00801C16001999A
:1045DC0010308161034900F053FC0120EEE700200C
:1045EC00ECE700BF2B7300082DE9FF41984600F162
:1045FC005803C0E916330E9B002683810423D51D76
:10460C00037425F007050D9B0D440F468373294653
:10461C00C0E906668660C6730446FDF7EFF80C9B8E
:10462C00073002930B9B20F0070001930A9B2D1A75
:10463C0000932A46434639462046FDF795FB054B29
:10464C0066659B6803B11B6E2846236604B0BDE803
:10465C00F08100BF9C0F0020F0B5002587B00595B8
:10466C00109DDDE9127604950F9D044603950E9D71
:10467C0002950D9D01950C9D0095FFF7B5FFB6F1C8
:10468C00FF3F08BFB7F1FF3F05D056EA070305D13E
:10469C00204600F06BFA204607B0F0BD3A46334690
:1046AC0004F11800014900F0EBFBF4E7A3740008D7
:1046BC0001230374838100230366014B98607047C8
:1046CC009C0F00206FF00A01084A9368D9660849CC
:1046DC0098664B6843F080534B60002383F311883A
:1046EC00BFF36F8F9368D86E704700BF9C0F00208C
:1046FC0000ED00E070B590F91020037C002A36DB49
:10470C00D90634D11B4C63F07F032246037452F854
:10471C00183FE169934207D1C0E900210860E061CC
:10472C0011E09942F8D01B68002BF5D090F90E508F
:10473C0093F90E60B542F4D0AE42F2DD5968C0E98F
:10474C00003108605860A569954200D005B9E5684C
:10475C00A3681A7CD20604D1DA897F2A01D9AA6906
:10476C0032B1AB4202D0284600F00CFB656170BD43
:10477C006361FCE79C0F002038B590F910200146CE
:10478C00002A037C04DA03F07F03037402F026FE94
:10479C000D4D2A4652F8184FAB68944200D004B91C
:1047AC00EC688B4207D01A7CD20604D1DA897F2AB6
:1047BC0001D9A2692AB1A34202D0204600F0E2FA44
:1047CC0023466B6138BD00BF9C0F0020B3F1FF3F47
:1047DC0008BFB2F1FF3F03D00249183000F050BBC4
:1047EC00704700BFA374000838B5194CA168E06984
:1047FC000B68814214BF1A46002249680B6059604D
:10480C00A368E1692AB9134AC3E900210B60E3618B
:10481C000CE093F90E0092F90E50A84214D0854288
:10482C0012DD5168C3E900210B605360A569094B87
:10483C009D4200D005B9E568A3689D4202D0284688
:10484C0000F0A0FA656138BD9142DCD01268D9E75E
:10485C009C0F0020B40F0020F8B5DDE906670D4B66
:10486C000C46986811460C4A1060EFF31182102226
:10487C0082F31288BFF36F8F9D68284602F0C0FD4B
:10488C00284632463B46FFF7A1FF2046BDE8F840DC
:10489C00FFF718BF9C0F0020C40F0020F8B504468A
:1048AC00EFF31187102383F31288BFF36F8F037C10
:1048BC0049B203F01F02002A0CBF0126002639D191
:1048CC0003F07F032D4D037402F088FD2A46037C10
:1048DC00817363F07F03037452F8183F934227D11E
:1048EC00E869C4E900200460EC610FE09842F8D05C
:1048FC001B68002BF5D093F90EC06145F6D08C45A2
:10490C00F4DD5968C4E900310C605C60AC69944218
:10491C0000D004B9EC68AB689C4202D0204600F091
:10492C0031FA6C6187F31188BFF36F8F3046F8BD95
:10493C00E869DEE79B071ED5856802F04FFD8173A1
:10494C002B689D4209D16B68C4E900531C606C60F4
:10495C00E8E76A689342F6D01B68002BF3D093F912
:10496C000E209142F5D08A42F3DD5A68C4E9003238
:10497C0014605C60D6E78173D4E700BF9C0F002005
:10498C0049B9EFF3058030B9054B5A699B689A42D7
:10499C0001D0FFF797BE81F31188BFF36F8F70477B
:1049AC009C0F0020034648B9EFF3058232B9064A42
:1049BC0051699268914201D0FFF784BE83F311884C
:1049CC00BFF36F8F704700BF9C0F0020EFF3118176
:1049DC00102383F31288BFF36F8F054B9A68D37B38
:1049EC00013BD37381F31188BFF36F8F704700BF06
:1049FC009C0F002070B5EFF31186102383F31288FF
:104A0C00BFF36F8F144DAB68DA7B0132DA732A4631
:104A1C0052F8184F944200D004B9EC681A7CD206B4
:104A2C0004D1DA897F2A01D9A2692AB1A34202D022
:104A3C00204600F0A7F923466B6186F31188BFF37B
:104A4C006F8FEFF31180102383F31288BFF36F8FF6
:104A5C00BDE87040FFF7A6BF9C0F0020024B03F18E
:104A6C001802C3E9062270479C0F002070B5EFF3C3
:104A7C001186102383F31288BFF36F8F1B4CA16830
:104A8C00E0690B68814214BF1A46002249680B602A
:104A9C005960A368E1692AB9154AC3E900210B6082
:104AAC00E3610CE093F90E0092F90E50A84218D075
:104ABC00854216DD5168C3E900210B605360A5697E
:104ACC000B4B9D4200D005B9E568A3689D4202D00E
:104ADC00284600F057F965613046BDE87040FFF795
:104AEC00F1BD8A42D8D01268D5E700BF9C0F0020D8
:104AFC00B40F0020F8B550EA010306460C4603D16A
:104B0C00FFF7B4FF0020F8BDEFF31187102383F3F8
:104B1C001288BFF36F8F124D124BA8681860FFF705
:104B2C002BFEA868234632460F49183000F0A8F92E
:104B3C00AA680446137C384643F004031374FFF749
:104B4C00C1FDAB68D3E90A23B3F1004F08BF002ABB
:104B5C00D8D102F041FD201A20EAE070D3E700BF63
:104B6C009C0F0020C40F0020A374000838B5044625
:104B7C00EFF31185102383F31288BFF36F8F037C3F
:104B8C005B070FD5183002F0FFFC237C204623F086
:104B9C0004032374FFF7AEFD2946BDE838400448F2
:104BAC00FFF7EEBE85F31188BFF36F8F38BD00BFE2
:104BBC00E40F0020014B9868704700BF9C0F002049
:104BCC002DE9F84304468789EFF31185102383F30D
:104BDC001288BFF36F8F037C190705D585F31188F5
:104BEC00BFF36F8FBDE8F883D90943F008025DD19C
:104BFC000274A36813B1204602F0F8FB04F118000C
:104C0C0002F0C2FCA66D04F15808B04511D04FF06B
:104C1C00000976B1304602F0E9FB06F1180002F00B
:104C2C00B3FC3046C6F86C90FFF764FDA66DB0453A
:104C3C00EFD1DFF8C080D8F808309C423ED1EFF3BA
:104C4C000589B9F1000918BF4FF00109D8F81860AF
:104C5C00294A964200D00EB9D8F80C60B34202D063
:104C6C00304600F08FF82046C8F8146000F06AFF58
:104C7C00B9F1000F02D02148FFF71AFDD8F808301F
:104C8C009C4231D1EFF3058373BBA289D20718D4B0
:104C9C002846FFF717FDFB07A4D5002383F31188E3
:104CAC00BFF36F8F0423184602DF9BE703F07F03EB
:104CBC0043F00803037402F091FB9AE74FF00009EC
:104CCC00C4E785F31188BFF36F8F83F31188BFF3AB
:104CDC006F8F0423184602DFEFF31180102383F348
:104CEC001288BFF36F8FD4E785F31188BFF36F8FF2
:104CFC00D1E700BF9C0F0020B40F0020B80B0020A0
:104D0C00D3B5DDE90667089CCDE90067FFF7A4FD84
:104D1C001CB1034B9B685B69236002B0D0BD00BF24
:104D2C009C0F0020027C034612F01F0210D10A498E
:104D3C0088420DD00949086868B1D9897F2909D8FA
:104D4C0093F90E20064B1B689A42B8BF002070479F
:104D5C000020704710467047D80A002044010020FC
:104D6C00C80F00200122044BC01A044BC01058433A
:104D7C00034B1A54704700BF280C0020ABAAAAAAF8
:104D8C00E40F002070B50C4B0C4D1E7CFFF7CAFFD6
:104D9C00182303FB06550446284602F0F5FB0022B7
:104DAC00074B9A553CB1621E2846BDE87040054938
:104DBC00D31700F065B870BD9C0F0020280C0020A4
:104DCC00E40F0020714D000838B5EFF31185102366
:104DDC0083F31288BFF36F8F0F4B104A9C681068D7
:104DEC00A04206D1FFF7CEFF85F31188BFF36F8F7A
:104DFC0038BD00211B7C1160094AD35C002BF3D019
:104E0C002046FFF78FFF0028EED0237CDB0601D174
:104E1C00FFF7EAFC2046E5E79C0F0020C40F0020BA
:104E2C00E40F0020024B1868984208BF002070471E
:104E3C0048010020034B1B680BB9FEF73DB800205E
:104E4C00704700BFCC0F002030B570B10B4B5B68C6
:104E5C0098420AD0036843B1D3E90421D0E9044550
:104E6C00121941EB0501C3E90421D0E900321360AA
:104E7C005A600023C0E9003330BD00BF4801002058
:104E8C00B3F1FF3F08BFB2F1FF3F2DE9F84F0446E5
:104E9C00994615461F467AD08160EFF3118810238E
:104EAC0083F31288BFF36F8FB9F1000FDFF8E4A022
:104EBC0020DBFFF7BFFFDAE90027013549F10009D4
:104ECC002D1849EBE07306464FF00109C4E9045371
:104EDC00AD1843EB0707FFF7A5FF0346DFF8B8E073
:104EEC00DEF804A0EBB9C4E900EACAF80040CEF839
:104EFC00044028E06FF00103DAE900125B1A4FF06E
:104F0C00FF3161EB02025B1B62EB0902012B72F1B8
:104F1C000001BCBF012300224FF00009C0E904329C
:104F2C00D9E7D3E9041CD4E904208A4270EB0C0BBA
:104F3C0024DA891A5A686CEB0000C3E90410C4E93E
:104F4C00003214605C60FFF76DFF84420ED1134B8E
:104F5C001B685BB9B9F1000F02D1FFF76BFF064676
:104F6C00304602F0FAFA0021FDF728FF88F3118889
:104F7C00BFF36F8F28463946BDE8F88F521A60EBA5
:104F8C000C009A45C4E90420ADD01B68AAE70025A3
:104F9C002F46EFE7400C002048010020CC0F0020EA
:104FAC002DE9F047EFF31185102383F31288BFF33B
:104FBC006F8FDFF8A0900026C9F800000027FFF7DC
:104FCC0031FFDFF89480D9F80030D8E900ECD9171C
:104FDC0050B1D0E90442A34271EB020A1BDAE41A85
:104FEC0062EB0102C0E90442002413EB0E034CEB0C
:104FFC0001012046C8E90031C9F8004002F0ADFAC1
:10500C002146FDF7DBFE85F31188BFF36F8FBDE8FA
:10501C00F047FFF7D9BE14EB0E024CEBE473C0E97A
:10502C000467C8E90023FFF70FFF85F31188BFF36E
:10503C006F8F83689847EFF31185102383F31288E1
:10504C00BFF36F8FD9F800301B1BC9F80030FFF786
:10505C00E9FEB8E7CC0F0020400C002010B5EFF3B0
:10506C001184102383F31288BFF36F8FFFF7E2FED6
:10507C000346054AD2E90001181841EBE37184F3A9
:10508C001188BFF36F8F10BD400C0020014800F059
:10509C0005BB00BF7E82000838B5064C064DAC42FD
:1050AC0001D3002038BD2046D4E9011202F098FA51
:1050BC001434F4E7780100207801002007B5074B81
:1050CC004FF48062009306494FF0FF330548FFF719
:1050DC0023FA002003B05DF804FB00BF5C7D0008E0
:1050EC00E8240020480C00200FB407B5064B04AA96
:1050FC0052F8041B1868019200F008F803B05DF830
:10510C0004EB04B0704700BF4C7B00082DE9F04F56
:10511C0043688DB00293837815469A07804640F118
:10512C000D8100240E78002E00F00A81252E0BD064
:10513C004B1C0393013441463046029B9847002890
:10514C00C0F2F6800399EDE74E788B1C252E039365
:10515C00F0D00027B946BB46BBF11F0F38D8A6F1DB
:10516C002003102B0AD8DFE803F02A0909300909BB
:10517C00092109090928092D09091F00A6F1300385
:10518C00092B33D92A2E37D11BF0400F55F8043B8D
:10519C0040F08280002BA7BF99464BF0200BC3F147
:1051AC0000094BF0280B01E04BF0010B039B13F8AB
:1051BC00016B0393002ECFD130E04BF0020B4BF080
:1051CC00040BF3E74BF0080BF0E74BF0100BEDE79B
:1051DC00BBF17F0F19D8A6F13003092BD2D81BF0E5
:1051EC00400F03D00A2101FB0737DFE70A214BF000
:1051FC00200B01FB0939D9E72E2E06D11BF0400FED
:10520C0040F09E804BF0400BD0E76C2E31D02BD869
:10521C00682E36D06A2E3CD04C2E3AD0002F46F059
:10522C002003B8BF2BF04002A3F16501BCBF0027DF
:10523C001FFA82FB022901D9612B2FD107270735D1
:10524C0025F00705DFF8A8A208351BF0080F66D07B
:10525C0056460AEB070B5E4563D1A4EB0A0A06EB34
:10526C000A02A9EB07096FE1742E9FD07A2E9DD00C
:10527C00D4E71BF0800F18BF4BF4007B4BF0800B76
:10528C0094E71BF4807F18BF4BF4007B4BF4807BBE
:10529C008CE74BF4207B89E71F4687E7A6F1630177
:1052AC00122900F2F080DFE811F013004F00EE003D
:1052BC00EE00EE00EE004F00EE00EE00EE00EE0011
:1052CC00EE00FE00E900EE00EE001B00EE00AF0069
:1052DC0055F8043B01278DF818300DF1180AB4E786
:1052EC0055F804AB834BBAF1000F08BF9A461BF07C
:1052FC00400F14BF39464FF0FF31504602F08EF983
:10530C000746A2E741462020029B984700280FDB66
:10531C00013EB742F6D34C44A41BB14698E74E4627
:10532C00F7E7414616F8010B029B9847002892DAE2
:10533C0098F8023043F0040388F802304FF0FF3441
:10534C0020460DB0BDE8F08F1BF0800F34D01BF45D
:10535C00007F2CD0073525F00705AA4669685AF856
:10536C00080B2BF010050029ADB237DA404261EB87
:10537C00410145F480650A230DF1180B5A4602F0E1
:10538C0059F9A0EB0B0301936B0662D5019B25F039
:10539C0001019F4289B240F3A180002E00F0998058
:1053AC0015F0100240F09C80BB460D4623E0AA4647
:1053BC005AF8040BC117D4E7AA461BF4807F5AF89D
:1053CC00041B01D10846F5E71BF4007F15BF48B25A
:1053DC0008B241F3C01141F3C031C2E750EA0103F6
:1053EC00C9D11BF0400FC6D0002FC4D12BF0110235
:1053FC00BB4695B2019740F2064115EA01021CBF6B
:10540C0000220BF1010B2CE00A232BF010021FFAE7
:10541C0082FB1BF0800C49D01BF400711DBF0735BB
:10542C0025F00705AA46AA461ABF5AF8080B696860
:10543C005AF8040B50EA010545D12BF016051BF068
:10544C00400FADB242D0002F40D12BF0170295B2D5
:10545C00019715F0100248D0019B002E42D103F1A8
:10546C00010B29075AD4EB0706D5D9456FDDA9EBFB
:10547C000B03CB4601995F185B4649E01023782655
:10548C004BF0100BC5E7782B04D1C6F1780343F031
:10549C001003BEE741462520029B98470028FFF6E3
:1054AC0047AF023447E608230026B2E7AA461BF4AE
:1054BC0080715AF8040BBDD01BF400711ABF614601
:1054CC00C0B280B2B6E72BF0060295B20DF1180B04
:1054DC0054E725F01105BB46ADB28CE70D46B8E795
:1054EC003B460D4603F1020BBBE7DDF804B082E747
:1054FC00C9820008C2820008CDE90432414620204E
:10550C00029B98470028FFF613AF049B059A0133C2
:10551C009945F1DCA4EB0B019B46CC180AB3414630
:10552C003020029B98470028FFF602AF8EB9013459
:10553C002744019B391B994223DC1D4655BB55461C
:10554C00019AA9EB0B0922441446914434E0019FC3
:10555C0092E7414630460234029B98470028E7DA2E
:10556C00E6E640F206410D42E2D015F0020F14BF00
:10557C002B20202015F4806F414618BF2D200134BC
:10558C00EAE741463020029B9847002804F10104C9
:10559C00CFDACDE606AB013D585D4146029B9847FC
:1055AC000028CBDAC4E641462020029B984700280D
:1055BC0004F10104FFF6BCAEA9EB0403002BF2DCF2
:1055CC00C0E500BF704700EBC10040884008704741
:1055DC00F8B50346FFF7F7FFB0FA80F0C0F11F00F3
:1055EC0003EB800CDCF81060CA00171D0C46063269
:1055FC008DB256B9012101FA00F0D9680143D96086
:10560C00CCF81040DD539D52F8BDF1000431585ACE
:10561C00D85303EBC0009E52C5805D52F4E7043AA8
:10562C002DE9F041CC1D114424F0070421F00701B1
:10563C000E1BF708B7FA87F24FF00008C2F12405E9
:10564C00AD000735C2F12002ED0804604146A760A9
:10565C00C4F80C80920004F1100001F0D7FF6B002D
:10566C0043F0010363807B1B04EBC5025900A4F8D3
:10567C0000805180A21924F83550A2F80280A3535F
:10568C0004EBC7035A88294642F001025A8020468F
:10569C00BDE8F041FFF79CBF002070470FB407B581
:1056AC0004A951F8040B0191FAF7C8FE03B05DF898
:1056BC0004EB04B0704770B506460C888888241A31
:1056CC003069A4B2844285B224BF641BA4B22D1BE2
:1056DC00A8B2984228BF18463368234413600B883D
:1056EC0003440B8070BD70B4838985880669ED1AFC
:1056FC00ADB2731B934228BF134670BC0A46011D02
:10570C00FFF7D9BF70B40E460146C58831F80A3F81
:10571C00EC1AA3B2934228BF1346324670BCFFF773
:10572C00CABF10B54B880C88E41AA4B294420ED3AD
:10573C001A4492B28B884A800A800069D21A92B2BB
:10574C00824201D2002010BD03448B80FAE76FF037
:10575C001500F8E72DE9F34106460F4615464FF0C4
:10576C0000082A46304601A9FFF7BDFF044640B1A8
:10577C0002463946019801F03BFF2D1BA0442744FB
:10578C00EFD142463046311DFFF7CBFF404602B009
:10579C00BDE8F0812DE9F34107460E4615464FF062
:1057AC0000082A46384601A9FFF7ACFF044648B169
:1057BC002EB102460199304601F01AFF26442D1BEA
:1057CC00A044EED14246384607F10A01FFF7A9FF83
:1057DC00404602B0BDE8F081704710F0700F09D15F
:1057EC0000F07F0310F0800F4FF0010018BF103352
:1057FC0098407047002070472DE9F84306460F4645
:10580C009046994604254B46424639463046FCF7AD
:10581C000BFE10F10B0F044603D1FFF727F9013DE6
:10582C00F1D12046BDE8F883006838B150F8043C4B
:10583C0004385B688B4201D04068F6E7704700681B
:10584C0048B150F8043C04385B685B689B788B4229
:10585C0001D04068F4E7704730B5006888B150F863
:10586C00043C04385B681A6A1D7F0023043ADCB2DE
:10587C00A54201D84068F1E7013312F833408C425D
:10588C00F5D130BD08B5FBF7B1FB28B1406810F17C
:10589C00100F14BF0020012008BD4B1CDBB281701F
:1058AC00817680F82530C37600F8061C704750E9E5
:1058BC000231D0F89C0018470022036983F84A2073
:1058CC007047036993F84A0050B193F8480038B117
:1058DC00D3F890209388918910695B1A9BB2C01AF7
:1058EC0070470022036983F84B207047036993F8D3
:1058FC00490008B193F84B00704708B50246FFF712
:10590C00F5FF30B91046FFF7DCFF003818BF012057
:10591C0008BD0120FCE70369C3E9001270470229A6
:10592C00036908D004290BD001290ED1D3F8943087
:10593C0000201360704793F89B30C3F34003F7E7E4
:10594C0093F89B3003F00103F2E76FF0850070478A
:10595C00CB7902690BB1012B03D1002082F8A13065
:10596C0070476FF08500704710B50369D3F8942029
:10597C000A6093F898206AB1012A0CBF0222032214
:10598C004A7193F89920501E032805D8DFE800F0DF
:10599C00050505050122F3E700220A7193F89A2008
:1059AC00062A0BD0072A0BD0052A0CBF0022032293
:1059BC008A7193F8A1300020CB7110BD0122F7E75A
:1059CC000222F5E708B5402903693DD013D8102908
:1059DC0031D006D801291ED0082920D06FF0120032
:1059EC0008BD2029FAD193F89C1001F0FB01EAB113
:1059FC0041F004011AE0B1F5807F2ED0B1F5007FA3
:105A0C0034D08029EAD193F89C1001F0EF016AB1EF
:105A1C0041F010010AE0C3F894200020E0E793F86D
:105A2C009C1001F0FE010AB141F0010183F89C10B9
:105A3C00FBF752FDF1E793F89C1001F0FD01002AF1
:105A4C00F4D041F00201F1E793F89C1001F0F7015A
:105A5C00002AEBD041F00801E8E793F89C1001F024
:105A6C00DF01002AE2D041F02001DFE793F89C101F
:105A7C0001F0BF01002AD9D041F04001D6E770B542
:105A8C0004690546D4F88C00FFF784FE94F8A03026
:105A9C000646B3B1D4F88C209388918912695B1AAD
:105AAC009BB2D31A3F2B0CD994F89E3033B16B6850
:105ABC0022461B6A0021187BFBF7AEFD002384F8FD
:105ACC00A030304670BD012208B5FFF7D8FF013871
